{
  "contractName": "Mondrain",
  "abi": [
    {
      "inputs": [],
      "stateMutability": "nonpayable",
      "type": "constructor"
    },
    {
      "anonymous": false,
      "inputs": [
        {
          "indexed": true,
          "internalType": "address",
          "name": "owner",
          "type": "address"
        },
        {
          "indexed": true,
          "internalType": "address",
          "name": "approved",
          "type": "address"
        },
        {
          "indexed": true,
          "internalType": "uint256",
          "name": "tokenId",
          "type": "uint256"
        }
      ],
      "name": "Approval",
      "type": "event"
    },
    {
      "anonymous": false,
      "inputs": [
        {
          "indexed": true,
          "internalType": "address",
          "name": "owner",
          "type": "address"
        },
        {
          "indexed": true,
          "internalType": "address",
          "name": "operator",
          "type": "address"
        },
        {
          "indexed": false,
          "internalType": "bool",
          "name": "approved",
          "type": "bool"
        }
      ],
      "name": "ApprovalForAll",
      "type": "event"
    },
    {
      "anonymous": false,
      "inputs": [
        {
          "indexed": true,
          "internalType": "address",
          "name": "from",
          "type": "address"
        },
        {
          "indexed": true,
          "internalType": "address",
          "name": "to",
          "type": "address"
        },
        {
          "indexed": true,
          "internalType": "uint256",
          "name": "tokenId",
          "type": "uint256"
        }
      ],
      "name": "Transfer",
      "type": "event"
    },
    {
      "inputs": [
        {
          "internalType": "address",
          "name": "to",
          "type": "address"
        },
        {
          "internalType": "uint256",
          "name": "tokenId",
          "type": "uint256"
        }
      ],
      "name": "approve",
      "outputs": [],
      "stateMutability": "nonpayable",
      "type": "function"
    },
    {
      "inputs": [
        {
          "internalType": "address",
          "name": "owner",
          "type": "address"
        }
      ],
      "name": "balanceOf",
      "outputs": [
        {
          "internalType": "uint256",
          "name": "",
          "type": "uint256"
        }
      ],
      "stateMutability": "view",
      "type": "function",
      "constant": true
    },
    {
      "inputs": [],
      "name": "baseURI",
      "outputs": [
        {
          "internalType": "string",
          "name": "",
          "type": "string"
        }
      ],
      "stateMutability": "view",
      "type": "function",
      "constant": true
    },
    {
      "inputs": [
        {
          "internalType": "uint256",
          "name": "tokenId",
          "type": "uint256"
        }
      ],
      "name": "getApproved",
      "outputs": [
        {
          "internalType": "address",
          "name": "",
          "type": "address"
        }
      ],
      "stateMutability": "view",
      "type": "function",
      "constant": true
    },
    {
      "inputs": [
        {
          "internalType": "address",
          "name": "owner",
          "type": "address"
        },
        {
          "internalType": "address",
          "name": "operator",
          "type": "address"
        }
      ],
      "name": "isApprovedForAll",
      "outputs": [
        {
          "internalType": "bool",
          "name": "",
          "type": "bool"
        }
      ],
      "stateMutability": "view",
      "type": "function",
      "constant": true
    },
    {
      "inputs": [],
      "name": "name",
      "outputs": [
        {
          "internalType": "string",
          "name": "",
          "type": "string"
        }
      ],
      "stateMutability": "view",
      "type": "function",
      "constant": true
    },
    {
      "inputs": [
        {
          "internalType": "uint256",
          "name": "tokenId",
          "type": "uint256"
        }
      ],
      "name": "ownerOf",
      "outputs": [
        {
          "internalType": "address",
          "name": "",
          "type": "address"
        }
      ],
      "stateMutability": "view",
      "type": "function",
      "constant": true
    },
    {
      "inputs": [
        {
          "internalType": "address",
          "name": "from",
          "type": "address"
        },
        {
          "internalType": "address",
          "name": "to",
          "type": "address"
        },
        {
          "internalType": "uint256",
          "name": "tokenId",
          "type": "uint256"
        }
      ],
      "name": "safeTransferFrom",
      "outputs": [],
      "stateMutability": "nonpayable",
      "type": "function"
    },
    {
      "inputs": [
        {
          "internalType": "address",
          "name": "from",
          "type": "address"
        },
        {
          "internalType": "address",
          "name": "to",
          "type": "address"
        },
        {
          "internalType": "uint256",
          "name": "tokenId",
          "type": "uint256"
        },
        {
          "internalType": "bytes",
          "name": "_data",
          "type": "bytes"
        }
      ],
      "name": "safeTransferFrom",
      "outputs": [],
      "stateMutability": "nonpayable",
      "type": "function"
    },
    {
      "inputs": [
        {
          "internalType": "address",
          "name": "operator",
          "type": "address"
        },
        {
          "internalType": "bool",
          "name": "approved",
          "type": "bool"
        }
      ],
      "name": "setApprovalForAll",
      "outputs": [],
      "stateMutability": "nonpayable",
      "type": "function"
    },
    {
      "inputs": [
        {
          "internalType": "bytes4",
          "name": "interfaceId",
          "type": "bytes4"
        }
      ],
      "name": "supportsInterface",
      "outputs": [
        {
          "internalType": "bool",
          "name": "",
          "type": "bool"
        }
      ],
      "stateMutability": "view",
      "type": "function",
      "constant": true
    },
    {
      "inputs": [],
      "name": "symbol",
      "outputs": [
        {
          "internalType": "string",
          "name": "",
          "type": "string"
        }
      ],
      "stateMutability": "view",
      "type": "function",
      "constant": true
    },
    {
      "inputs": [
        {
          "internalType": "uint256",
          "name": "index",
          "type": "uint256"
        }
      ],
      "name": "tokenByIndex",
      "outputs": [
        {
          "internalType": "uint256",
          "name": "",
          "type": "uint256"
        }
      ],
      "stateMutability": "view",
      "type": "function",
      "constant": true
    },
    {
      "inputs": [
        {
          "internalType": "address",
          "name": "owner",
          "type": "address"
        },
        {
          "internalType": "uint256",
          "name": "index",
          "type": "uint256"
        }
      ],
      "name": "tokenOfOwnerByIndex",
      "outputs": [
        {
          "internalType": "uint256",
          "name": "",
          "type": "uint256"
        }
      ],
      "stateMutability": "view",
      "type": "function",
      "constant": true
    },
    {
      "inputs": [
        {
          "internalType": "uint256",
          "name": "tokenId",
          "type": "uint256"
        }
      ],
      "name": "tokenURI",
      "outputs": [
        {
          "internalType": "string",
          "name": "",
          "type": "string"
        }
      ],
      "stateMutability": "view",
      "type": "function",
      "constant": true
    },
    {
      "inputs": [
        {
          "internalType": "uint256",
          "name": "",
          "type": "uint256"
        }
      ],
      "name": "tokens",
      "outputs": [
        {
          "internalType": "string",
          "name": "",
          "type": "string"
        }
      ],
      "stateMutability": "view",
      "type": "function",
      "constant": true
    },
    {
      "inputs": [],
      "name": "totalSupply",
      "outputs": [
        {
          "internalType": "uint256",
          "name": "",
          "type": "uint256"
        }
      ],
      "stateMutability": "view",
      "type": "function",
      "constant": true
    },
    {
      "inputs": [
        {
          "internalType": "address",
          "name": "from",
          "type": "address"
        },
        {
          "internalType": "address",
          "name": "to",
          "type": "address"
        },
        {
          "internalType": "uint256",
          "name": "tokenId",
          "type": "uint256"
        }
      ],
      "name": "transferFrom",
      "outputs": [],
      "stateMutability": "nonpayable",
      "type": "function"
    },
    {
      "inputs": [
        {
          "internalType": "string",
          "name": "_token",
          "type": "string"
        },
        {
          "internalType": "string",
          "name": "_tokenURI",
          "type": "string"
        }
      ],
      "name": "mint",
      "outputs": [],
      "stateMutability": "nonpayable",
      "type": "function"
    },
    {
      "inputs": [
        {
          "internalType": "string",
          "name": "_token",
          "type": "string"
        }
      ],
      "name": "getTokenId",
      "outputs": [
        {
          "internalType": "uint256",
          "name": "",
          "type": "uint256"
        }
      ],
      "stateMutability": "view",
      "type": "function",
      "constant": true
    },
    {
      "inputs": [
        {
          "internalType": "string",
          "name": "str",
          "type": "string"
        }
      ],
      "name": "testStrLength",
      "outputs": [
        {
          "internalType": "bool",
          "name": "",
          "type": "bool"
        }
      ],
      "stateMutability": "pure",
      "type": "function",
      "constant": true
    },
    {
      "inputs": [
        {
          "internalType": "string",
          "name": "str",
          "type": "string"
        }
      ],
      "name": "testStrNonEmptyFirstLastChar",
      "outputs": [
        {
          "internalType": "bool",
          "name": "",
          "type": "bool"
        }
      ],
      "stateMutability": "pure",
      "type": "function",
      "constant": true
    }
  ],
  "bytecode": "0x60806040523480156200001157600080fd5b506040518060400160405280600681526020017f71756164726f00000000000000000000000000000000000000000000000000008152506040518060400160405280600681526020017f51554144524f0000000000000000000000000000000000000000000000000000815250620000966301ffc9a760e01b6200015e60201b60201c565b8160069080519060200190620000ae92919062000283565b508060079080519060200190620000c792919062000283565b50620000e06380ac58cd60e01b6200015e60201b60201c565b620000f8635b5e139f60e01b6200015e60201b60201c565b6200011063780e9d6360e01b6200015e60201b60201c565b5050620001586040518060400160405280601c81526020017f68747470733a2f2f697066732e696e667572612e696f2f697066732f000000008152506200026760201b60201c565b62000329565b63ffffffff60e01b817bffffffffffffffffffffffffffffffffffffffffffffffffffffffff19161415620001fb576040517f08c379a000000000000000000000000000000000000000000000000000000000815260040180806020018281038252601c8152602001807f4552433136353a20696e76616c696420696e746572666163652069640000000081525060200191505060405180910390fd5b6001600080837bffffffffffffffffffffffffffffffffffffffffffffffffffffffff19167bffffffffffffffffffffffffffffffffffffffffffffffffffffffff1916815260200190815260200160002060006101000a81548160ff02191690831515021790555050565b80600990805190602001906200027f92919062000283565b5050565b828054600181600116156101000203166002900490600052602060002090601f016020900481019282601f10620002c657805160ff1916838001178555620002f7565b82800160010185558215620002f7579182015b82811115620002f6578251825591602001919060010190620002d9565b5b5090506200030691906200030a565b5090565b5b80821115620003255760008160009055506001016200030b565b5090565b61340780620003396000396000f3fe608060405234801561001057600080fd5b50600436106101425760003560e01c80634f6ccce7116100b85780638fec1c671161007c5780638fec1c671461093d57806395d89b4114610a0e578063a22cb46514610a91578063b88d4fde14610ae1578063c87b56dd14610be6578063e985e9c514610c8d57610142565b80634f6ccce7146106765780636352211e146106b85780636c0360eb1461071057806370a08231146107935780638aa0fdad146107eb57610142565b80631e7663bc1161010a5780631e7663bc146102f157806323b872dd146103c057806326ffa14c1461042e5780632f745c59146104ff57806342842e0e146105615780634f64b2be146105cf57610142565b806301ffc9a71461014757806306fdde03146101aa578063081812fc1461022d578063095ea7b31461028557806318160ddd146102d3575b600080fd5b6101926004803603602081101561015d57600080fd5b8101908080357bffffffffffffffffffffffffffffffffffffffffffffffffffffffff19169060200190929190505050610d07565b60405180821515815260200191505060405180910390f35b6101b2610d6e565b6040518080602001828103825283818151815260200191508051906020019080838360005b838110156101f25780820151818401526020810190506101d7565b50505050905090810190601f16801561021f5780820380516001836020036101000a031916815260200191505b509250505060405180910390f35b6102596004803603602081101561024357600080fd5b8101908080359060200190929190505050610e10565b604051808273ffffffffffffffffffffffffffffffffffffffff16815260200191505060405180910390f35b6102d16004803603604081101561029b57600080fd5b81019080803573ffffffffffffffffffffffffffffffffffffffff16906020019092919080359060200190929190505050610eab565b005b6102db610fef565b6040518082815260200191505060405180910390f35b6103aa6004803603602081101561030757600080fd5b810190808035906020019064010000000081111561032457600080fd5b82018360208201111561033657600080fd5b8035906020019184600183028401116401000000008311171561035857600080fd5b91908080601f016020809104026020016040519081016040528093929190818152602001838380828437600081840152601f19601f820116905080830192505050505050509192919290505050611000565b6040518082815260200191505060405180910390f35b61042c600480360360608110156103d657600080fd5b81019080803573ffffffffffffffffffffffffffffffffffffffff169060200190929190803573ffffffffffffffffffffffffffffffffffffffff16906020019092919080359060200190929190505050611073565b005b6104e76004803603602081101561044457600080fd5b810190808035906020019064010000000081111561046157600080fd5b82018360208201111561047357600080fd5b8035906020019184600183028401116401000000008311171561049557600080fd5b91908080601f016020809104026020016040519081016040528093929190818152602001838380828437600081840152601f19601f8201169050808301925050505050505091929192905050506110e9565b60405180821515815260200191505060405180910390f35b61054b6004803603604081101561051557600080fd5b81019080803573ffffffffffffffffffffffffffffffffffffffff16906020019092919080359060200190929190505050611194565b6040518082815260200191505060405180910390f35b6105cd6004803603606081101561057757600080fd5b81019080803573ffffffffffffffffffffffffffffffffffffffff169060200190929190803573ffffffffffffffffffffffffffffffffffffffff169060200190929190803590602001909291905050506111ef565b005b6105fb600480360360208110156105e557600080fd5b810190808035906020019092919050505061120f565b6040518080602001828103825283818151815260200191508051906020019080838360005b8381101561063b578082015181840152602081019050610620565b50505050905090810190601f1680156106685780820380516001836020036101000a031916815260200191505b509250505060405180910390f35b6106a26004803603602081101561068c57600080fd5b81019080803590602001909291905050506112c8565b6040518082815260200191505060405180910390f35b6106e4600480360360208110156106ce57600080fd5b81019080803590602001909291905050506112eb565b604051808273ffffffffffffffffffffffffffffffffffffffff16815260200191505060405180910390f35b610718611322565b6040518080602001828103825283818151815260200191508051906020019080838360005b8381101561075857808201518184015260208101905061073d565b50505050905090810190601f1680156107855780820380516001836020036101000a031916815260200191505b509250505060405180910390f35b6107d5600480360360208110156107a957600080fd5b81019080803573ffffffffffffffffffffffffffffffffffffffff1690602001909291905050506113c4565b6040518082815260200191505060405180910390f35b61093b6004803603604081101561080157600080fd5b810190808035906020019064010000000081111561081e57600080fd5b82018360208201111561083057600080fd5b8035906020019184600183028401116401000000008311171561085257600080fd5b91908080601f016020809104026020016040519081016040528093929190818152602001838380828437600081840152601f19601f820116905080830192505050505050509192919290803590602001906401000000008111156108b557600080fd5b8201836020820111156108c757600080fd5b803590602001918460018302840111640100000000831117156108e957600080fd5b91908080601f016020809104026020016040519081016040528093929190818152602001838380828437600081840152601f19601f820116905080830192505050505050509192919290505050611499565b005b6109f66004803603602081101561095357600080fd5b810190808035906020019064010000000081111561097057600080fd5b82018360208201111561098257600080fd5b803590602001918460018302840111640100000000831117156109a457600080fd5b91908080601f016020809104026020016040519081016040528093929190818152602001838380828437600081840152601f19601f8201169050808301925050505050505091929192905050506116a4565b60405180821515815260200191505060405180910390f35b610a166116cb565b6040518080602001828103825283818151815260200191508051906020019080838360005b83811015610a56578082015181840152602081019050610a3b565b50505050905090810190601f168015610a835780820380516001836020036101000a031916815260200191505b509250505060405180910390f35b610adf60048036036040811015610aa757600080fd5b81019080803573ffffffffffffffffffffffffffffffffffffffff16906020019092919080351515906020019092919050505061176d565b005b610be460048036036080811015610af757600080fd5b81019080803573ffffffffffffffffffffffffffffffffffffffff169060200190929190803573ffffffffffffffffffffffffffffffffffffffff1690602001909291908035906020019092919080359060200190640100000000811115610b5e57600080fd5b820183602082011115610b7057600080fd5b80359060200191846001830284011164010000000083111715610b9257600080fd5b91908080601f016020809104026020016040519081016040528093929190818152602001838380828437600081840152601f19601f820116905080830192505050505050509192919290505050611923565b005b610c1260048036036020811015610bfc57600080fd5b810190808035906020019092919050505061199b565b6040518080602001828103825283818151815260200191508051906020019080838360005b83811015610c52578082015181840152602081019050610c37565b50505050905090810190601f168015610c7f5780820380516001836020036101000a031916815260200191505b509250505060405180910390f35b610cef60048036036040811015610ca357600080fd5b81019080803573ffffffffffffffffffffffffffffffffffffffff169060200190929190803573ffffffffffffffffffffffffffffffffffffffff169060200190929190505050611c6c565b60405180821515815260200191505060405180910390f35b6000806000837bffffffffffffffffffffffffffffffffffffffffffffffffffffffff19167bffffffffffffffffffffffffffffffffffffffffffffffffffffffff1916815260200190815260200160002060009054906101000a900460ff169050919050565b606060068054600181600116156101000203166002900480601f016020809104026020016040519081016040528092919081815260200182805460018160011615610100020316600290048015610e065780601f10610ddb57610100808354040283529160200191610e06565b820191906000526020600020905b815481529060010190602001808311610de957829003601f168201915b5050505050905090565b6000610e1b82611d00565b610e70576040517f08c379a000000000000000000000000000000000000000000000000000000000815260040180806020018281038252602c8152602001806132ae602c913960400191505060405180910390fd5b6004600083815260200190815260200160002060009054906101000a900473ffffffffffffffffffffffffffffffffffffffff169050919050565b6000610eb6826112eb565b90508073ffffffffffffffffffffffffffffffffffffffff168373ffffffffffffffffffffffffffffffffffffffff161415610f3d576040517f08c379a000000000000000000000000000000000000000000000000000000000815260040180806020018281038252602181526020018061335e6021913960400191505060405180910390fd5b8073ffffffffffffffffffffffffffffffffffffffff16610f5c611d1d565b73ffffffffffffffffffffffffffffffffffffffff161480610f8b5750610f8a81610f85611d1d565b611c6c565b5b610fe0576040517f08c379a00000000000000000000000000000000000000000000000000000000081526004018080602001828103825260388152602001806132016038913960400191505060405180910390fd5b610fea8383611d25565b505050565b6000610ffb6002611dde565b905090565b6000600b826040518082805190602001908083835b602083106110385780518252602082019150602081019050602083039250611015565b6001836020036101000a0380198251168184511680821785525050505050509050019150509081526020016040518091039020549050919050565b61108461107e611d1d565b82611df3565b6110d9576040517f08c379a000000000000000000000000000000000000000000000000000000000815260040180806020018281038252603181526020018061337f6031913960400191505060405180910390fd5b6110e4838383611ee7565b505050565b60006060829050602060f81b8160008151811061110257fe5b602001015160f81c60f81b7effffffffffffffffffffffffffffffffffffffffffffffffffffffffffffff1916148061117a5750602060f81b8160018351038151811061114b57fe5b602001015160f81c60f81b7effffffffffffffffffffffffffffffffffffffffffffffffffffffffffffff1916145b1561118957600091505061118f565b60019150505b919050565b60006111e782600160008673ffffffffffffffffffffffffffffffffffffffff1673ffffffffffffffffffffffffffffffffffffffff16815260200190815260200160002061212a90919063ffffffff16565b905092915050565b61120a83838360405180602001604052806000815250611923565b505050565b600a818154811061121c57fe5b906000526020600020016000915090508054600181600116156101000203166002900480601f0160208091040260200160405190810160405280929190818152602001828054600181600116156101000203166002900480156112c05780601f10611295576101008083540402835291602001916112c0565b820191906000526020600020905b8154815290600101906020018083116112a357829003601f168201915b505050505081565b6000806112df83600261214490919063ffffffff16565b50905080915050919050565b600061131b826040518060600160405280602981526020016132636029913960026121709092919063ffffffff16565b9050919050565b606060098054600181600116156101000203166002900480601f0160208091040260200160405190810160405280929190818152602001828054600181600116156101000203166002900480156113ba5780601f1061138f576101008083540402835291602001916113ba565b820191906000526020600020905b81548152906001019060200180831161139d57829003601f168201915b5050505050905090565b60008073ffffffffffffffffffffffffffffffffffffffff168273ffffffffffffffffffffffffffffffffffffffff16141561144b576040517f08c379a000000000000000000000000000000000000000000000000000000000815260040180806020018281038252602a815260200180613239602a913960400191505060405180910390fd5b611492600160008473ffffffffffffffffffffffffffffffffffffffff1673ffffffffffffffffffffffffffffffffffffffff16815260200190815260200160002061218f565b9050919050565b60608290506000815111611515576040517f08c379a00000000000000000000000000000000000000000000000000000000081526004018080602001828103825260168152602001807f546f6b656e2063616e6e6f7420626520656d7074792e0000000000000000000081525060200191505060405180910390fd5b61151e836116a4565b611573576040517f08c379a00000000000000000000000000000000000000000000000000000000081526004018080602001828103825260228152602001806133b06022913960400191505060405180910390fd5b61157c836110e9565b6115d1576040517f08c379a000000000000000000000000000000000000000000000000000000000815260040180806020018281038252604081526020018061314b6040913960400191505060405180910390fd5b6000818051906020012060001c90506115ea33826121a4565b6115f481846121c2565b600a8490806001815401808255809150506001900390600052602060002001600090919091909150908051906020019061162f929190613059565b5080600b856040518082805190602001908083835b602083106116675780518252602082019150602081019050602083039250611644565b6001836020036101000a03801982511681845116808217855250505050505090500191505090815260200160405180910390208190555050505050565b600060608290506110c7815111156116c05760009150506116c6565b60019150505b919050565b606060078054600181600116156101000203166002900480601f0160208091040260200160405190810160405280929190818152602001828054600181600116156101000203166002900480156117635780601f1061173857610100808354040283529160200191611763565b820191906000526020600020905b81548152906001019060200180831161174657829003601f168201915b5050505050905090565b611775611d1d565b73ffffffffffffffffffffffffffffffffffffffff168273ffffffffffffffffffffffffffffffffffffffff161415611816576040517f08c379a00000000000000000000000000000000000000000000000000000000081526004018080602001828103825260198152602001807f4552433732313a20617070726f766520746f2063616c6c65720000000000000081525060200191505060405180910390fd5b8060056000611823611d1d565b73ffffffffffffffffffffffffffffffffffffffff1673ffffffffffffffffffffffffffffffffffffffff16815260200190815260200160002060008473ffffffffffffffffffffffffffffffffffffffff1673ffffffffffffffffffffffffffffffffffffffff16815260200190815260200160002060006101000a81548160ff0219169083151502179055508173ffffffffffffffffffffffffffffffffffffffff166118d0611d1d565b73ffffffffffffffffffffffffffffffffffffffff167f17307eab39ab6107e8899845ad3d59bd9653f200f220920489ca2b5937696c318360405180821515815260200191505060405180910390a35050565b61193461192e611d1d565b83611df3565b611989576040517f08c379a000000000000000000000000000000000000000000000000000000000815260040180806020018281038252603181526020018061337f6031913960400191505060405180910390fd5b6119958484848461224c565b50505050565b60606119a682611d00565b6119fb576040517f08c379a000000000000000000000000000000000000000000000000000000000815260040180806020018281038252602f81526020018061332f602f913960400191505060405180910390fd5b6060600860008481526020019081526020016000208054600181600116156101000203166002900480601f016020809104026020016040519081016040528092919081815260200182805460018160011615610100020316600290048015611aa45780601f10611a7957610100808354040283529160200191611aa4565b820191906000526020600020905b815481529060010190602001808311611a8757829003601f168201915b505050505090506060611ab5611322565b9050600081511415611acb578192505050611c67565b600082511115611b9c5780826040516020018083805190602001908083835b60208310611b0d5780518252602082019150602081019050602083039250611aea565b6001836020036101000a03801982511681845116808217855250505050505090500182805190602001908083835b60208310611b5e5780518252602082019150602081019050602083039250611b3b565b6001836020036101000a0380198251168184511680821785525050505050509050019250505060405160208183030381529060405292505050611c67565b80611ba6856122be565b6040516020018083805190602001908083835b60208310611bdc5780518252602082019150602081019050602083039250611bb9565b6001836020036101000a03801982511681845116808217855250505050505090500182805190602001908083835b60208310611c2d5780518252602082019150602081019050602083039250611c0a565b6001836020036101000a03801982511681845116808217855250505050505090500192505050604051602081830303815290604052925050505b919050565b6000600560008473ffffffffffffffffffffffffffffffffffffffff1673ffffffffffffffffffffffffffffffffffffffff16815260200190815260200160002060008373ffffffffffffffffffffffffffffffffffffffff1673ffffffffffffffffffffffffffffffffffffffff16815260200190815260200160002060009054906101000a900460ff16905092915050565b6000611d1682600261240590919063ffffffff16565b9050919050565b600033905090565b816004600083815260200190815260200160002060006101000a81548173ffffffffffffffffffffffffffffffffffffffff021916908373ffffffffffffffffffffffffffffffffffffffff160217905550808273ffffffffffffffffffffffffffffffffffffffff16611d98836112eb565b73ffffffffffffffffffffffffffffffffffffffff167f8c5be1e5ebec7d5bd14f71427d1e84f3dd0314c0f7b2291e5b200ac8c7c3b92560405160405180910390a45050565b6000611dec8260000161241f565b9050919050565b6000611dfe82611d00565b611e53576040517f08c379a000000000000000000000000000000000000000000000000000000000815260040180806020018281038252602c8152602001806131d5602c913960400191505060405180910390fd5b6000611e5e836112eb565b90508073ffffffffffffffffffffffffffffffffffffffff168473ffffffffffffffffffffffffffffffffffffffff161480611ecd57508373ffffffffffffffffffffffffffffffffffffffff16611eb584610e10565b73ffffffffffffffffffffffffffffffffffffffff16145b80611ede5750611edd8185611c6c565b5b91505092915050565b8273ffffffffffffffffffffffffffffffffffffffff16611f07826112eb565b73ffffffffffffffffffffffffffffffffffffffff1614611f73576040517f08c379a00000000000000000000000000000000000000000000000000000000081526004018080602001828103825260298152602001806133066029913960400191505060405180910390fd5b600073ffffffffffffffffffffffffffffffffffffffff168273ffffffffffffffffffffffffffffffffffffffff161415611ff9576040517f08c379a000000000000000000000000000000000000000000000000000000000815260040180806020018281038252602481526020018061318b6024913960400191505060405180910390fd5b612004838383612430565b61200f600082611d25565b61206081600160008673ffffffffffffffffffffffffffffffffffffffff1673ffffffffffffffffffffffffffffffffffffffff16815260200190815260200160002061243590919063ffffffff16565b506120b281600160008573ffffffffffffffffffffffffffffffffffffffff1673ffffffffffffffffffffffffffffffffffffffff16815260200190815260200160002061244f90919063ffffffff16565b506120c9818360026124699092919063ffffffff16565b50808273ffffffffffffffffffffffffffffffffffffffff168473ffffffffffffffffffffffffffffffffffffffff167fddf252ad1be2c89b69c2b068fc378daa952ba7f163c4a11628f55a4df523b3ef60405160405180910390a4505050565b6000612139836000018361249e565b60001c905092915050565b6000806000806121578660000186612521565b915091508160001c8160001c9350935050509250929050565b6000612183846000018460001b846125ba565b60001c90509392505050565b600061219d826000016126b0565b9050919050565b6121be8282604051806020016040528060008152506126c1565b5050565b6121cb82611d00565b612220576040517f08c379a000000000000000000000000000000000000000000000000000000000815260040180806020018281038252602c8152602001806132da602c913960400191505060405180910390fd5b80600860008481526020019081526020016000209080519060200190612247929190613059565b505050565b612257848484611ee7565b61226384848484612732565b6122b8576040517f08c379a00000000000000000000000000000000000000000000000000000000081526004018080602001828103825260328152602001806131196032913960400191505060405180910390fd5b50505050565b60606000821415612306576040518060400160405280600181526020017f30000000000000000000000000000000000000000000000000000000000000008152509050612400565b600082905060005b60008214612330578080600101915050600a828161232857fe5b04915061230e565b60608167ffffffffffffffff8111801561234957600080fd5b506040519080825280601f01601f19166020018201604052801561237c5781602001600182028036833780820191505090505b50905060006001830390508593505b600084146123f857600a848161239d57fe5b0660300160f81b828280600190039350815181106123b757fe5b60200101907effffffffffffffffffffffffffffffffffffffffffffffffffffffffffffff1916908160001a905350600a84816123f057fe5b04935061238b565b819450505050505b919050565b6000612417836000018360001b61294b565b905092915050565b600081600001805490509050919050565b505050565b6000612447836000018360001b61296e565b905092915050565b6000612461836000018360001b612a56565b905092915050565b6000612495846000018460001b8473ffffffffffffffffffffffffffffffffffffffff1660001b612ac6565b90509392505050565b6000818360000180549050116124ff576040517f08c379a00000000000000000000000000000000000000000000000000000000081526004018080602001828103825260228152602001806130f76022913960400191505060405180910390fd5b82600001828154811061250e57fe5b9060005260206000200154905092915050565b60008082846000018054905011612583576040517f08c379a000000000000000000000000000000000000000000000000000000000815260040180806020018281038252602281526020018061328c6022913960400191505060405180910390fd5b600084600001848154811061259457fe5b906000526020600020906002020190508060000154816001015492509250509250929050565b60008084600101600085815260200190815260200160002054905060008114158390612681576040517f08c379a00000000000000000000000000000000000000000000000000000000081526004018080602001828103825283818151815260200191508051906020019080838360005b8381101561264657808201518184015260208101905061262b565b50505050905090810190601f1680156126735780820380516001836020036101000a031916815260200191505b509250505060405180910390fd5b5084600001600182038154811061269457fe5b9060005260206000209060020201600101549150509392505050565b600081600001805490509050919050565b6126cb8383612ba2565b6126d86000848484612732565b61272d576040517f08c379a00000000000000000000000000000000000000000000000000000000081526004018080602001828103825260328152602001806131196032913960400191505060405180910390fd5b505050565b60006127538473ffffffffffffffffffffffffffffffffffffffff16612d96565b6127605760019050612943565b60606128ca63150b7a0260e01b612775611d1d565b888787604051602401808573ffffffffffffffffffffffffffffffffffffffff1681526020018473ffffffffffffffffffffffffffffffffffffffff16815260200183815260200180602001828103825283818151815260200191508051906020019080838360005b838110156127f95780820151818401526020810190506127de565b50505050905090810190601f1680156128265780820380516001836020036101000a031916815260200191505b5095505050505050604051602081830303815290604052907bffffffffffffffffffffffffffffffffffffffffffffffffffffffff19166020820180517bffffffffffffffffffffffffffffffffffffffffffffffffffffffff8381831617835250505050604051806060016040528060328152602001613119603291398773ffffffffffffffffffffffffffffffffffffffff16612da99092919063ffffffff16565b905060008180602001905160208110156128e357600080fd5b8101908080519060200190929190505050905063150b7a0260e01b7bffffffffffffffffffffffffffffffffffffffffffffffffffffffff1916817bffffffffffffffffffffffffffffffffffffffffffffffffffffffff191614925050505b949350505050565b600080836001016000848152602001908152602001600020541415905092915050565b60008083600101600084815260200190815260200160002054905060008114612a4a57600060018203905060006001866000018054905003905060008660000182815481106129b957fe5b90600052602060002001549050808760000184815481106129d657fe5b9060005260206000200181905550600183018760010160008381526020019081526020016000208190555086600001805480612a0e57fe5b60019003818190600052602060002001600090559055866001016000878152602001908152602001600020600090556001945050505050612a50565b60009150505b92915050565b6000612a628383612dc1565b612abb578260000182908060018154018082558091505060019003906000526020600020016000909190919091505582600001805490508360010160008481526020019081526020016000208190555060019050612ac0565b600090505b92915050565b6000808460010160008581526020019081526020016000205490506000811415612b6d57846000016040518060400160405280868152602001858152509080600181540180825580915050600190039060005260206000209060020201600090919091909150600082015181600001556020820151816001015550508460000180549050856001016000868152602001908152602001600020819055506001915050612b9b565b82856000016001830381548110612b8057fe5b90600052602060002090600202016001018190555060009150505b9392505050565b600073ffffffffffffffffffffffffffffffffffffffff168273ffffffffffffffffffffffffffffffffffffffff161415612c45576040517f08c379a00000000000000000000000000000000000000000000000000000000081526004018080602001828103825260208152602001807f4552433732313a206d696e7420746f20746865207a65726f206164647265737381525060200191505060405180910390fd5b612c4e81611d00565b15612cc1576040517f08c379a000000000000000000000000000000000000000000000000000000000815260040180806020018281038252601c8152602001807f4552433732313a20746f6b656e20616c7265616479206d696e7465640000000081525060200191505060405180910390fd5b612ccd60008383612430565b612d1e81600160008573ffffffffffffffffffffffffffffffffffffffff1673ffffffffffffffffffffffffffffffffffffffff16815260200190815260200160002061244f90919063ffffffff16565b50612d35818360026124699092919063ffffffff16565b50808273ffffffffffffffffffffffffffffffffffffffff16600073ffffffffffffffffffffffffffffffffffffffff167fddf252ad1be2c89b69c2b068fc378daa952ba7f163c4a11628f55a4df523b3ef60405160405180910390a45050565b600080823b905060008111915050919050565b6060612db88484600085612de4565b90509392505050565b600080836001016000848152602001908152602001600020541415905092915050565b606082471015612e3f576040517f08c379a00000000000000000000000000000000000000000000000000000000081526004018080602001828103825260268152602001806131af6026913960400191505060405180910390fd5b612e4885612d96565b612eba576040517f08c379a000000000000000000000000000000000000000000000000000000000815260040180806020018281038252601d8152602001807f416464726573733a2063616c6c20746f206e6f6e2d636f6e747261637400000081525060200191505060405180910390fd5b600060608673ffffffffffffffffffffffffffffffffffffffff1685876040518082805190602001908083835b60208310612f0a5780518252602082019150602081019050602083039250612ee7565b6001836020036101000a03801982511681845116808217855250505050505090500191505060006040518083038185875af1925050503d8060008114612f6c576040519150601f19603f3d011682016040523d82523d6000602084013e612f71565b606091505b5091509150612f81828286612f8d565b92505050949350505050565b60608315612f9d57829050613052565b600083511115612fb05782518084602001fd5b816040517f08c379a00000000000000000000000000000000000000000000000000000000081526004018080602001828103825283818151815260200191508051906020019080838360005b83811015613017578082015181840152602081019050612ffc565b50505050905090810190601f1680156130445780820380516001836020036101000a031916815260200191505b509250505060405180910390fd5b9392505050565b828054600181600116156101000203166002900490600052602060002090601f016020900481019282601f1061309a57805160ff19168380011785556130c8565b828001600101855582156130c8579182015b828111156130c75782518255916020019190600101906130ac565b5b5090506130d591906130d9565b5090565b5b808211156130f25760008160009055506001016130da565b509056fe456e756d657261626c655365743a20696e646578206f7574206f6620626f756e64734552433732313a207472616e7366657220746f206e6f6e20455243373231526563656976657220696d706c656d656e746572546f6b656e2063616e6e6f7420636f6e7461696e20656d7074792073706163652061742074686520626567696e6e696e67206f722061742074686520656e642e4552433732313a207472616e7366657220746f20746865207a65726f2061646472657373416464726573733a20696e73756666696369656e742062616c616e636520666f722063616c6c4552433732313a206f70657261746f7220717565727920666f72206e6f6e6578697374656e7420746f6b656e4552433732313a20617070726f76652063616c6c6572206973206e6f74206f776e6572206e6f7220617070726f76656420666f7220616c6c4552433732313a2062616c616e636520717565727920666f7220746865207a65726f20616464726573734552433732313a206f776e657220717565727920666f72206e6f6e6578697374656e7420746f6b656e456e756d657261626c654d61703a20696e646578206f7574206f6620626f756e64734552433732313a20617070726f76656420717565727920666f72206e6f6e6578697374656e7420746f6b656e4552433732314d657461646174613a2055524920736574206f66206e6f6e6578697374656e7420746f6b656e4552433732313a207472616e73666572206f6620746f6b656e2074686174206973206e6f74206f776e4552433732314d657461646174613a2055524920717565727920666f72206e6f6e6578697374656e7420746f6b656e4552433732313a20617070726f76616c20746f2063757272656e74206f776e65724552433732313a207472616e736665722063616c6c6572206973206e6f74206f776e6572206e6f7220617070726f766564546f6b656e206c656e6774682069732067726561746572207468616e20343239352ea2646970667358221220e2c69b77e09cc9168909c67b6c513eb427084f15c5432aac13f515a52448c1b964736f6c634300060c0033",
  "immutableReferences": {},
  "source": "// SPDX-License-Identifier: AGPL-3.0-or-later\npragma solidity ^0.6.0;\n\nimport \"@openzeppelin/contracts/token/ERC721/ERC721.sol\";\n\ncontract Mondrain is ERC721 {\n  \n  string[] public tokens;\n  mapping(string => uint) _tokenId;\n\n  constructor() public ERC721(\"quadro\", \"QUADRO\") {\n    _setBaseURI(\"https://ipfs.infura.io/ipfs/\");\n  }\n  \n  function mint(string memory _token, string memory _tokenURI) public {\n    bytes memory b = bytes(_token);\n    require(b.length > 0, \"Token cannot be empty.\");\n    //test string length\n    require(testStrLength(_token), \"Token length is greater than 4295.\" );\n    //test for empty chars\n    require(testStrNonEmptyFirstLastChar(_token), \"Token cannot contain empty space at the beginning or at the end.\");\n    //create id \n    uint _id = uint(keccak256(b));\n    //mint token\n    _safeMint(msg.sender, _id);\n    //set metadata URI\n    _setTokenURI(_id, _tokenURI);\n    //save token into array\n    tokens.push(_token);\n    //save token id\n    _tokenId[_token] = _id;\n  }\n  \n  function getTokenId(string memory _token) public view returns (uint) {\n    return _tokenId[_token];\n  }\n\n  function testStrLength(string memory str) public pure returns (bool) {\n    bytes memory b = bytes(str); \n    if(b.length > 4295) return false; //max alphanumeric qrcode chars 4296-1\n    return true;\n  }\n\n  function testStrNonEmptyFirstLastChar(string memory str) public pure returns (bool) {\n    bytes memory b = bytes(str);\n    if(b[0] == 0x20 || b[b.length - 1] == 0x20 ) return false; //test first or last char to be non-empty\n    return true;\n  }\n\n}\n\n",
  "sourcePath": "/Users/alessandrobartalucci/nft2/mondrian/contracts/Mondrain.sol",
  "compiler": {
    "name": "solc",
    "version": "0.6.12+commit.27d51765.Emscripten.clang"
  },
  "schemaVersion": "3.3.4",
  "updatedAt": "2021-04-25T08:49:06.223Z",
  "networkType": "ethereum",
  "devdoc": {
    "kind": "dev",
    "methods": {
      "approve(address,uint256)": {
        "details": "See {IERC721-approve}."
      },
      "balanceOf(address)": {
        "details": "See {IERC721-balanceOf}."
      },
      "baseURI()": {
        "details": "Returns the base URI set via {_setBaseURI}. This will be automatically added as a prefix in {tokenURI} to each token's URI, or to the token ID if no specific URI is set for that token ID."
      },
      "getApproved(uint256)": {
        "details": "See {IERC721-getApproved}."
      },
      "isApprovedForAll(address,address)": {
        "details": "See {IERC721-isApprovedForAll}."
      },
      "name()": {
        "details": "See {IERC721Metadata-name}."
      },
      "ownerOf(uint256)": {
        "details": "See {IERC721-ownerOf}."
      },
      "safeTransferFrom(address,address,uint256)": {
        "details": "See {IERC721-safeTransferFrom}."
      },
      "safeTransferFrom(address,address,uint256,bytes)": {
        "details": "See {IERC721-safeTransferFrom}."
      },
      "setApprovalForAll(address,bool)": {
        "details": "See {IERC721-setApprovalForAll}."
      },
      "supportsInterface(bytes4)": {
        "details": "See {IERC165-supportsInterface}. Time complexity O(1), guaranteed to always use less than 30 000 gas."
      },
      "symbol()": {
        "details": "See {IERC721Metadata-symbol}."
      },
      "tokenByIndex(uint256)": {
        "details": "See {IERC721Enumerable-tokenByIndex}."
      },
      "tokenOfOwnerByIndex(address,uint256)": {
        "details": "See {IERC721Enumerable-tokenOfOwnerByIndex}."
      },
      "tokenURI(uint256)": {
        "details": "See {IERC721Metadata-tokenURI}."
      },
      "totalSupply()": {
        "details": "See {IERC721Enumerable-totalSupply}."
      },
      "transferFrom(address,address,uint256)": {
        "details": "See {IERC721-transferFrom}."
      }
    },
    "version": 1
  },
  "userdoc": {
    "kind": "user",
    "methods": {},
    "version": 1
  }
}