{
  "contractName": "MondrainERC20",
  "abi": [
    {
      "inputs": [],
      "stateMutability": "nonpayable",
      "type": "constructor"
    },
    {
      "anonymous": false,
      "inputs": [
        {
          "indexed": true,
          "internalType": "address",
          "name": "owner",
          "type": "address"
        },
        {
          "indexed": true,
          "internalType": "address",
          "name": "spender",
          "type": "address"
        },
        {
          "indexed": false,
          "internalType": "uint256",
          "name": "value",
          "type": "uint256"
        }
      ],
      "name": "Approval",
      "type": "event"
    },
    {
      "anonymous": false,
      "inputs": [
        {
          "indexed": true,
          "internalType": "bytes32",
          "name": "role",
          "type": "bytes32"
        },
        {
          "indexed": true,
          "internalType": "bytes32",
          "name": "previousAdminRole",
          "type": "bytes32"
        },
        {
          "indexed": true,
          "internalType": "bytes32",
          "name": "newAdminRole",
          "type": "bytes32"
        }
      ],
      "name": "RoleAdminChanged",
      "type": "event"
    },
    {
      "anonymous": false,
      "inputs": [
        {
          "indexed": true,
          "internalType": "bytes32",
          "name": "role",
          "type": "bytes32"
        },
        {
          "indexed": true,
          "internalType": "address",
          "name": "account",
          "type": "address"
        },
        {
          "indexed": true,
          "internalType": "address",
          "name": "sender",
          "type": "address"
        }
      ],
      "name": "RoleGranted",
      "type": "event"
    },
    {
      "anonymous": false,
      "inputs": [
        {
          "indexed": true,
          "internalType": "bytes32",
          "name": "role",
          "type": "bytes32"
        },
        {
          "indexed": true,
          "internalType": "address",
          "name": "account",
          "type": "address"
        },
        {
          "indexed": true,
          "internalType": "address",
          "name": "sender",
          "type": "address"
        }
      ],
      "name": "RoleRevoked",
      "type": "event"
    },
    {
      "anonymous": false,
      "inputs": [
        {
          "indexed": true,
          "internalType": "address",
          "name": "from",
          "type": "address"
        },
        {
          "indexed": true,
          "internalType": "address",
          "name": "to",
          "type": "address"
        },
        {
          "indexed": false,
          "internalType": "uint256",
          "name": "value",
          "type": "uint256"
        }
      ],
      "name": "Transfer",
      "type": "event"
    },
    {
      "inputs": [],
      "name": "BURNER_ROLE",
      "outputs": [
        {
          "internalType": "bytes32",
          "name": "",
          "type": "bytes32"
        }
      ],
      "stateMutability": "view",
      "type": "function",
      "constant": true
    },
    {
      "inputs": [],
      "name": "DEFAULT_ADMIN_ROLE",
      "outputs": [
        {
          "internalType": "bytes32",
          "name": "",
          "type": "bytes32"
        }
      ],
      "stateMutability": "view",
      "type": "function",
      "constant": true
    },
    {
      "inputs": [],
      "name": "MINTER_ROLE",
      "outputs": [
        {
          "internalType": "bytes32",
          "name": "",
          "type": "bytes32"
        }
      ],
      "stateMutability": "view",
      "type": "function",
      "constant": true
    },
    {
      "inputs": [
        {
          "internalType": "address",
          "name": "owner",
          "type": "address"
        },
        {
          "internalType": "address",
          "name": "spender",
          "type": "address"
        }
      ],
      "name": "allowance",
      "outputs": [
        {
          "internalType": "uint256",
          "name": "",
          "type": "uint256"
        }
      ],
      "stateMutability": "view",
      "type": "function",
      "constant": true
    },
    {
      "inputs": [
        {
          "internalType": "address",
          "name": "spender",
          "type": "address"
        },
        {
          "internalType": "uint256",
          "name": "amount",
          "type": "uint256"
        }
      ],
      "name": "approve",
      "outputs": [
        {
          "internalType": "bool",
          "name": "",
          "type": "bool"
        }
      ],
      "stateMutability": "nonpayable",
      "type": "function"
    },
    {
      "inputs": [
        {
          "internalType": "address",
          "name": "account",
          "type": "address"
        }
      ],
      "name": "balanceOf",
      "outputs": [
        {
          "internalType": "uint256",
          "name": "",
          "type": "uint256"
        }
      ],
      "stateMutability": "view",
      "type": "function",
      "constant": true
    },
    {
      "inputs": [],
      "name": "cap",
      "outputs": [
        {
          "internalType": "uint256",
          "name": "",
          "type": "uint256"
        }
      ],
      "stateMutability": "view",
      "type": "function",
      "constant": true
    },
    {
      "inputs": [],
      "name": "decimals",
      "outputs": [
        {
          "internalType": "uint8",
          "name": "",
          "type": "uint8"
        }
      ],
      "stateMutability": "view",
      "type": "function",
      "constant": true
    },
    {
      "inputs": [
        {
          "internalType": "address",
          "name": "spender",
          "type": "address"
        },
        {
          "internalType": "uint256",
          "name": "subtractedValue",
          "type": "uint256"
        }
      ],
      "name": "decreaseAllowance",
      "outputs": [
        {
          "internalType": "bool",
          "name": "",
          "type": "bool"
        }
      ],
      "stateMutability": "nonpayable",
      "type": "function"
    },
    {
      "inputs": [
        {
          "internalType": "bytes32",
          "name": "role",
          "type": "bytes32"
        }
      ],
      "name": "getRoleAdmin",
      "outputs": [
        {
          "internalType": "bytes32",
          "name": "",
          "type": "bytes32"
        }
      ],
      "stateMutability": "view",
      "type": "function",
      "constant": true
    },
    {
      "inputs": [
        {
          "internalType": "bytes32",
          "name": "role",
          "type": "bytes32"
        },
        {
          "internalType": "address",
          "name": "account",
          "type": "address"
        }
      ],
      "name": "grantRole",
      "outputs": [],
      "stateMutability": "nonpayable",
      "type": "function"
    },
    {
      "inputs": [
        {
          "internalType": "bytes32",
          "name": "role",
          "type": "bytes32"
        },
        {
          "internalType": "address",
          "name": "account",
          "type": "address"
        }
      ],
      "name": "hasRole",
      "outputs": [
        {
          "internalType": "bool",
          "name": "",
          "type": "bool"
        }
      ],
      "stateMutability": "view",
      "type": "function",
      "constant": true
    },
    {
      "inputs": [
        {
          "internalType": "address",
          "name": "spender",
          "type": "address"
        },
        {
          "internalType": "uint256",
          "name": "addedValue",
          "type": "uint256"
        }
      ],
      "name": "increaseAllowance",
      "outputs": [
        {
          "internalType": "bool",
          "name": "",
          "type": "bool"
        }
      ],
      "stateMutability": "nonpayable",
      "type": "function"
    },
    {
      "inputs": [],
      "name": "name",
      "outputs": [
        {
          "internalType": "string",
          "name": "",
          "type": "string"
        }
      ],
      "stateMutability": "view",
      "type": "function",
      "constant": true
    },
    {
      "inputs": [
        {
          "internalType": "bytes32",
          "name": "role",
          "type": "bytes32"
        },
        {
          "internalType": "address",
          "name": "account",
          "type": "address"
        }
      ],
      "name": "renounceRole",
      "outputs": [],
      "stateMutability": "nonpayable",
      "type": "function"
    },
    {
      "inputs": [
        {
          "internalType": "bytes32",
          "name": "role",
          "type": "bytes32"
        },
        {
          "internalType": "address",
          "name": "account",
          "type": "address"
        }
      ],
      "name": "revokeRole",
      "outputs": [],
      "stateMutability": "nonpayable",
      "type": "function"
    },
    {
      "inputs": [
        {
          "internalType": "bytes4",
          "name": "interfaceId",
          "type": "bytes4"
        }
      ],
      "name": "supportsInterface",
      "outputs": [
        {
          "internalType": "bool",
          "name": "",
          "type": "bool"
        }
      ],
      "stateMutability": "view",
      "type": "function",
      "constant": true
    },
    {
      "inputs": [],
      "name": "symbol",
      "outputs": [
        {
          "internalType": "string",
          "name": "",
          "type": "string"
        }
      ],
      "stateMutability": "view",
      "type": "function",
      "constant": true
    },
    {
      "inputs": [],
      "name": "totalSupply",
      "outputs": [
        {
          "internalType": "uint256",
          "name": "",
          "type": "uint256"
        }
      ],
      "stateMutability": "view",
      "type": "function",
      "constant": true
    },
    {
      "inputs": [
        {
          "internalType": "address",
          "name": "recipient",
          "type": "address"
        },
        {
          "internalType": "uint256",
          "name": "amount",
          "type": "uint256"
        }
      ],
      "name": "transfer",
      "outputs": [
        {
          "internalType": "bool",
          "name": "",
          "type": "bool"
        }
      ],
      "stateMutability": "nonpayable",
      "type": "function"
    },
    {
      "inputs": [
        {
          "internalType": "address",
          "name": "sender",
          "type": "address"
        },
        {
          "internalType": "address",
          "name": "recipient",
          "type": "address"
        },
        {
          "internalType": "uint256",
          "name": "amount",
          "type": "uint256"
        }
      ],
      "name": "transferFrom",
      "outputs": [
        {
          "internalType": "bool",
          "name": "",
          "type": "bool"
        }
      ],
      "stateMutability": "nonpayable",
      "type": "function"
    },
    {
      "inputs": [
        {
          "internalType": "address",
          "name": "to",
          "type": "address"
        },
        {
          "internalType": "uint256",
          "name": "amount",
          "type": "uint256"
        }
      ],
      "name": "mint",
      "outputs": [],
      "stateMutability": "nonpayable",
      "type": "function"
    },
    {
      "inputs": [
        {
          "internalType": "address",
          "name": "from",
          "type": "address"
        },
        {
          "internalType": "uint256",
          "name": "amount",
          "type": "uint256"
        }
      ],
      "name": "burn",
      "outputs": [],
      "stateMutability": "nonpayable",
      "type": "function"
    },
    {
      "inputs": [
        {
          "internalType": "address",
          "name": "newMinter",
          "type": "address"
        }
      ],
      "name": "grantMinterRole",
      "outputs": [],
      "stateMutability": "nonpayable",
      "type": "function"
    },
    {
      "inputs": [
        {
          "internalType": "address",
          "name": "newBurner",
          "type": "address"
        }
      ],
      "name": "grantBurnerRole",
      "outputs": [],
      "stateMutability": "nonpayable",
      "type": "function"
    },
    {
      "inputs": [
        {
          "internalType": "address",
          "name": "minter",
          "type": "address"
        }
      ],
      "name": "revokeMinterRole",
      "outputs": [],
      "stateMutability": "nonpayable",
      "type": "function"
    },
    {
      "inputs": [
        {
          "internalType": "address",
          "name": "burner",
          "type": "address"
        }
      ],
      "name": "revokeBurnerRole",
      "outputs": [],
      "stateMutability": "nonpayable",
      "type": "function"
    }
  ],
  "bytecode": "0x60a06040526b204fce5e3e250261100000006006553480156200002157600080fd5b506006546040518060400160405280600881526020017f6d6f6e647261696e0000000000000000000000000000000000000000000000008152506040518060400160405280600381526020017f584d4400000000000000000000000000000000000000000000000000000000008152508160039080519060200190620000a99291906200074a565b508060049080519060200190620000c29291906200074a565b505050600081116200010b576040517f08c379a0000000000000000000000000000000000000000000000000000000008152600401620001029062000996565b60405180910390fd5b806080818152505050620001296000801b336200019360201b60201c565b6200015b7f9f2df0fed2c77648de5860a4cc508cd0818c85b8b8a1ab4ceeef8d981c8956a633620001a960201b60201c565b6200018d7f3c11d16cbaffd01df69ce1c404f6340ee057498f5f00246190ea54220576a84833620001a960201b60201c565b62000c55565b620001a58282620001f260201b60201c565b5050565b620001ba82620002e460201b60201c565b620001db81620001cf6200030460201b60201c565b6200030c60201b60201c565b620001ed8383620001f260201b60201c565b505050565b620002048282620003d060201b60201c565b620002e05760016005600084815260200190815260200160002060000160008373ffffffffffffffffffffffffffffffffffffffff1673ffffffffffffffffffffffffffffffffffffffff16815260200190815260200160002060006101000a81548160ff021916908315150217905550620002856200030460201b60201c565b73ffffffffffffffffffffffffffffffffffffffff168173ffffffffffffffffffffffffffffffffffffffff16837f2f8788117e7eff1d82e926ec794901d17c78024a50270940304540a733656f0d60405160405180910390a45b5050565b600060056000838152602001908152602001600020600101549050919050565b600033905090565b6200031e8282620003d060201b60201c565b620003cc57620003518173ffffffffffffffffffffffffffffffffffffffff1660146200043b60201b62000f801760201c565b6200036c8360001c60206200043b60201b62000f801760201c565b6040516020016200037f9291906200090e565b6040516020818303038152906040526040517f08c379a0000000000000000000000000000000000000000000000000000000008152600401620003c3919062000950565b60405180910390fd5b5050565b60006005600084815260200190815260200160002060000160008373ffffffffffffffffffffffffffffffffffffffff1673ffffffffffffffffffffffffffffffffffffffff16815260200190815260200160002060009054906101000a900460ff16905092915050565b60606000600283600262000450919062000a3c565b6200045c9190620009df565b67ffffffffffffffff8111156200049c577f4e487b7100000000000000000000000000000000000000000000000000000000600052604160045260246000fd5b6040519080825280601f01601f191660200182016040528015620004cf5781602001600182028036833780820191505090505b5090507f3000000000000000000000000000000000000000000000000000000000000000816000815181106200052e577f4e487b7100000000000000000000000000000000000000000000000000000000600052603260045260246000fd5b60200101907effffffffffffffffffffffffffffffffffffffffffffffffffffffffffffff1916908160001a9053507f780000000000000000000000000000000000000000000000000000000000000081600181518110620005b9577f4e487b7100000000000000000000000000000000000000000000000000000000600052603260045260246000fd5b60200101907effffffffffffffffffffffffffffffffffffffffffffffffffffffffffffff1916908160001a90535060006001846002620005fb919062000a3c565b620006079190620009df565b90505b6001811115620006f9577f3031323334353637383961626364656600000000000000000000000000000000600f86166010811062000671577f4e487b7100000000000000000000000000000000000000000000000000000000600052603260045260246000fd5b1a60f81b828281518110620006af577f4e487b7100000000000000000000000000000000000000000000000000000000600052603260045260246000fd5b60200101907effffffffffffffffffffffffffffffffffffffffffffffffffffffffffffff1916908160001a905350600485901c945080620006f19062000add565b90506200060a565b506000841462000740576040517f08c379a0000000000000000000000000000000000000000000000000000000008152600401620007379062000974565b60405180910390fd5b8091505092915050565b828054620007589062000b0c565b90600052602060002090601f0160209004810192826200077c5760008555620007c8565b82601f106200079757805160ff1916838001178555620007c8565b82800160010185558215620007c8579182015b82811115620007c7578251825591602001919060010190620007aa565b5b509050620007d79190620007db565b5090565b5b80821115620007f6576000816000905550600101620007dc565b5090565b60006200080782620009b8565b620008138185620009c3565b93506200082581856020860162000aa7565b620008308162000ba0565b840191505092915050565b60006200084882620009b8565b620008548185620009d4565b93506200086681856020860162000aa7565b80840191505092915050565b600062000881602083620009c3565b91506200088e8262000bb1565b602082019050919050565b6000620008a8601583620009c3565b9150620008b58262000bda565b602082019050919050565b6000620008cf601783620009d4565b9150620008dc8262000c03565b601782019050919050565b6000620008f6601183620009d4565b9150620009038262000c2c565b601182019050919050565b60006200091b82620008c0565b91506200092982856200083b565b91506200093682620008e7565b91506200094482846200083b565b91508190509392505050565b600060208201905081810360008301526200096c8184620007fa565b905092915050565b600060208201905081810360008301526200098f8162000872565b9050919050565b60006020820190508181036000830152620009b18162000899565b9050919050565b600081519050919050565b600082825260208201905092915050565b600081905092915050565b6000620009ec8262000a9d565b9150620009f98362000a9d565b9250827fffffffffffffffffffffffffffffffffffffffffffffffffffffffffffffffff0382111562000a315762000a3062000b42565b5b828201905092915050565b600062000a498262000a9d565b915062000a568362000a9d565b9250817fffffffffffffffffffffffffffffffffffffffffffffffffffffffffffffffff048311821515161562000a925762000a9162000b42565b5b828202905092915050565b6000819050919050565b60005b8381101562000ac757808201518184015260208101905062000aaa565b8381111562000ad7576000848401525b50505050565b600062000aea8262000a9d565b9150600082141562000b015762000b0062000b42565b5b600182039050919050565b6000600282049050600182168062000b2557607f821691505b6020821081141562000b3c5762000b3b62000b71565b5b50919050565b7f4e487b7100000000000000000000000000000000000000000000000000000000600052601160045260246000fd5b7f4e487b7100000000000000000000000000000000000000000000000000000000600052602260045260246000fd5b6000601f19601f8301169050919050565b7f537472696e67733a20686578206c656e67746820696e73756666696369656e74600082015250565b7f45524332304361707065643a2063617020697320300000000000000000000000600082015250565b7f416363657373436f6e74726f6c3a206163636f756e7420000000000000000000600082015250565b7f206973206d697373696e6720726f6c6520000000000000000000000000000000600082015250565b608051612c6762000c7160003960006108290152612c676000f3fe608060405234801561001057600080fd5b50600436106101a95760003560e01c806340c10f19116100f9578063a457c2d711610097578063d539139311610071578063d5391393146104f4578063d547741f14610512578063d98d23b11461052e578063dd62ed3e1461054a576101a9565b8063a457c2d714610478578063a9059cbb146104a8578063c3052ffc146104d8576101a9565b806391d14854116100d357806391d14854146103f057806395d89b41146104205780639dc29fac1461043e578063a217fddf1461045a576101a9565b806340c10f191461038857806369e2f0fb146103a457806370a08231146103c0576101a9565b8063282c51f311610166578063355274ea11610140578063355274ea1461030257806336568abe14610320578063395093511461033c5780633dd1eb611461036c576101a9565b8063282c51f3146102aa5780632f2ff15d146102c8578063313ce567146102e4576101a9565b806301ffc9a7146101ae57806306fdde03146101de578063095ea7b3146101fc57806318160ddd1461022c57806323b872dd1461024a578063248a9ca31461027a575b600080fd5b6101c860048036038101906101c39190611ed6565b61057a565b6040516101d59190612255565b60405180910390f35b6101e66105f4565b6040516101f3919061228b565b60405180910390f35b61021660048036038101906102119190611e35565b610686565b6040516102239190612255565b60405180910390f35b6102346106a4565b60405161024191906124ad565b60405180910390f35b610264600480360381019061025f9190611de6565b6106ae565b6040516102719190612255565b60405180910390f35b610294600480360381019061028f9190611e71565b6107af565b6040516102a19190612270565b60405180910390f35b6102b26107cf565b6040516102bf9190612270565b60405180910390f35b6102e260048036038101906102dd9190611e9a565b6107f3565b005b6102ec61081c565b6040516102f991906124c8565b60405180910390f35b61030a610825565b60405161031791906124ad565b60405180910390f35b61033a60048036038101906103359190611e9a565b61084d565b005b61035660048036038101906103519190611e35565b6108d0565b6040516103639190612255565b60405180910390f35b61038660048036038101906103819190611d81565b61097c565b005b6103a2600480360381019061039d9190611e35565b6109f5565b005b6103be60048036038101906103b99190611d81565b610a6c565b005b6103da60048036038101906103d59190611d81565b610ae5565b6040516103e791906124ad565b60405180910390f35b61040a60048036038101906104059190611e9a565b610b2d565b6040516104179190612255565b60405180910390f35b610428610b98565b604051610435919061228b565b60405180910390f35b61045860048036038101906104539190611e35565b610c2a565b005b610462610ca1565b60405161046f9190612270565b60405180910390f35b610492600480360381019061048d9190611e35565b610ca8565b60405161049f9190612255565b60405180910390f35b6104c260048036038101906104bd9190611e35565b610d9c565b6040516104cf9190612255565b60405180910390f35b6104f260048036038101906104ed9190611d81565b610dba565b005b6104fc610e33565b6040516105099190612270565b60405180910390f35b61052c60048036038101906105279190611e9a565b610e57565b005b61054860048036038101906105439190611d81565b610e80565b005b610564600480360381019061055f9190611daa565b610ef9565b60405161057191906124ad565b60405180910390f35b60007f7965db0b000000000000000000000000000000000000000000000000000000007bffffffffffffffffffffffffffffffffffffffffffffffffffffffff1916827bffffffffffffffffffffffffffffffffffffffffffffffffffffffff191614806105ed57506105ec8261127a565b5b9050919050565b606060038054610603906126d6565b80601f016020809104026020016040519081016040528092919081815260200182805461062f906126d6565b801561067c5780601f106106515761010080835404028352916020019161067c565b820191906000526020600020905b81548152906001019060200180831161065f57829003601f168201915b5050505050905090565b600061069a6106936112e4565b84846112ec565b6001905092915050565b6000600254905090565b60006106bb8484846114b7565b6000600160008673ffffffffffffffffffffffffffffffffffffffff1673ffffffffffffffffffffffffffffffffffffffff16815260200190815260200160002060006107066112e4565b73ffffffffffffffffffffffffffffffffffffffff1673ffffffffffffffffffffffffffffffffffffffff16815260200190815260200160002054905082811015610786576040517f08c379a000000000000000000000000000000000000000000000000000000000815260040161077d9061238d565b60405180910390fd5b6107a3856107926112e4565b858461079e91906125ba565b6112ec565b60019150509392505050565b600060056000838152602001908152602001600020600101549050919050565b7f3c11d16cbaffd01df69ce1c404f6340ee057498f5f00246190ea54220576a84881565b6107fc826107af565b61080d816108086112e4565b611736565b61081783836117d3565b505050565b60006012905090565b60007f0000000000000000000000000000000000000000000000000000000000000000905090565b6108556112e4565b73ffffffffffffffffffffffffffffffffffffffff168173ffffffffffffffffffffffffffffffffffffffff16146108c2576040517f08c379a00000000000000000000000000000000000000000000000000000000081526004016108b99061246d565b60405180910390fd5b6108cc82826118b4565b5050565b60006109726108dd6112e4565b8484600160006108eb6112e4565b73ffffffffffffffffffffffffffffffffffffffff1673ffffffffffffffffffffffffffffffffffffffff16815260200190815260200160002060008873ffffffffffffffffffffffffffffffffffffffff1673ffffffffffffffffffffffffffffffffffffffff1681526020019081526020016000205461096d919061250a565b6112ec565b6001905092915050565b6109896000801b33610b2d565b6109c8576040517f08c379a00000000000000000000000000000000000000000000000000000000081526004016109bf9061244d565b60405180910390fd5b6109f27f9f2df0fed2c77648de5860a4cc508cd0818c85b8b8a1ab4ceeef8d981c8956a6826107f3565b50565b610a1f7f9f2df0fed2c77648de5860a4cc508cd0818c85b8b8a1ab4ceeef8d981c8956a633610b2d565b610a5e576040517f08c379a0000000000000000000000000000000000000000000000000000000008152600401610a559061234d565b60405180910390fd5b610a688282611996565b5050565b610a796000801b33610b2d565b610ab8576040517f08c379a0000000000000000000000000000000000000000000000000000000008152600401610aaf9061244d565b60405180910390fd5b610ae27f9f2df0fed2c77648de5860a4cc508cd0818c85b8b8a1ab4ceeef8d981c8956a682610e57565b50565b60008060008373ffffffffffffffffffffffffffffffffffffffff1673ffffffffffffffffffffffffffffffffffffffff168152602001908152602001600020549050919050565b60006005600084815260200190815260200160002060000160008373ffffffffffffffffffffffffffffffffffffffff1673ffffffffffffffffffffffffffffffffffffffff16815260200190815260200160002060009054906101000a900460ff16905092915050565b606060048054610ba7906126d6565b80601f0160208091040260200160405190810160405280929190818152602001828054610bd3906126d6565b8015610c205780601f10610bf557610100808354040283529160200191610c20565b820191906000526020600020905b815481529060010190602001808311610c0357829003601f168201915b5050505050905090565b610c547f3c11d16cbaffd01df69ce1c404f6340ee057498f5f00246190ea54220576a84833610b2d565b610c93576040517f08c379a0000000000000000000000000000000000000000000000000000000008152600401610c8a9061236d565b60405180910390fd5b610c9d8282611a00565b5050565b6000801b81565b60008060016000610cb76112e4565b73ffffffffffffffffffffffffffffffffffffffff1673ffffffffffffffffffffffffffffffffffffffff16815260200190815260200160002060008573ffffffffffffffffffffffffffffffffffffffff1673ffffffffffffffffffffffffffffffffffffffff16815260200190815260200160002054905082811015610d74576040517f08c379a0000000000000000000000000000000000000000000000000000000008152600401610d6b9061242d565b60405180910390fd5b610d91610d7f6112e4565b858584610d8c91906125ba565b6112ec565b600191505092915050565b6000610db0610da96112e4565b84846114b7565b6001905092915050565b610dc76000801b33610b2d565b610e06576040517f08c379a0000000000000000000000000000000000000000000000000000000008152600401610dfd9061244d565b60405180910390fd5b610e307f3c11d16cbaffd01df69ce1c404f6340ee057498f5f00246190ea54220576a84882610e57565b50565b7f9f2df0fed2c77648de5860a4cc508cd0818c85b8b8a1ab4ceeef8d981c8956a681565b610e60826107af565b610e7181610e6c6112e4565b611736565b610e7b83836118b4565b505050565b610e8d6000801b33610b2d565b610ecc576040517f08c379a0000000000000000000000000000000000000000000000000000000008152600401610ec39061244d565b60405180910390fd5b610ef67f3c11d16cbaffd01df69ce1c404f6340ee057498f5f00246190ea54220576a848826107f3565b50565b6000600160008473ffffffffffffffffffffffffffffffffffffffff1673ffffffffffffffffffffffffffffffffffffffff16815260200190815260200160002060008373ffffffffffffffffffffffffffffffffffffffff1673ffffffffffffffffffffffffffffffffffffffff16815260200190815260200160002054905092915050565b606060006002836002610f939190612560565b610f9d919061250a565b67ffffffffffffffff811115610fdc577f4e487b7100000000000000000000000000000000000000000000000000000000600052604160045260246000fd5b6040519080825280601f01601f19166020018201604052801561100e5781602001600182028036833780820191505090505b5090507f30000000000000000000000000000000000000000000000000000000000000008160008151811061106c577f4e487b7100000000000000000000000000000000000000000000000000000000600052603260045260246000fd5b60200101907effffffffffffffffffffffffffffffffffffffffffffffffffffffffffffff1916908160001a9053507f7800000000000000000000000000000000000000000000000000000000000000816001815181106110f6577f4e487b7100000000000000000000000000000000000000000000000000000000600052603260045260246000fd5b60200101907effffffffffffffffffffffffffffffffffffffffffffffffffffffffffffff1916908160001a905350600060018460026111369190612560565b611140919061250a565b90505b600181111561122c577f3031323334353637383961626364656600000000000000000000000000000000600f8616601081106111a8577f4e487b7100000000000000000000000000000000000000000000000000000000600052603260045260246000fd5b1a60f81b8282815181106111e5577f4e487b7100000000000000000000000000000000000000000000000000000000600052603260045260246000fd5b60200101907effffffffffffffffffffffffffffffffffffffffffffffffffffffffffffff1916908160001a905350600485901c945080611225906126ac565b9050611143565b5060008414611270576040517f08c379a0000000000000000000000000000000000000000000000000000000008152600401611267906122ad565b60405180910390fd5b8091505092915050565b60007f01ffc9a7000000000000000000000000000000000000000000000000000000007bffffffffffffffffffffffffffffffffffffffffffffffffffffffff1916827bffffffffffffffffffffffffffffffffffffffffffffffffffffffff1916149050919050565b600033905090565b600073ffffffffffffffffffffffffffffffffffffffff168373ffffffffffffffffffffffffffffffffffffffff16141561135c576040517f08c379a00000000000000000000000000000000000000000000000000000000081526004016113539061240d565b60405180910390fd5b600073ffffffffffffffffffffffffffffffffffffffff168273ffffffffffffffffffffffffffffffffffffffff1614156113cc576040517f08c379a00000000000000000000000000000000000000000000000000000000081526004016113c39061230d565b60405180910390fd5b80600160008573ffffffffffffffffffffffffffffffffffffffff1673ffffffffffffffffffffffffffffffffffffffff16815260200190815260200160002060008473ffffffffffffffffffffffffffffffffffffffff1673ffffffffffffffffffffffffffffffffffffffff168152602001908152602001600020819055508173ffffffffffffffffffffffffffffffffffffffff168373ffffffffffffffffffffffffffffffffffffffff167f8c5be1e5ebec7d5bd14f71427d1e84f3dd0314c0f7b2291e5b200ac8c7c3b925836040516114aa91906124ad565b60405180910390a3505050565b600073ffffffffffffffffffffffffffffffffffffffff168373ffffffffffffffffffffffffffffffffffffffff161415611527576040517f08c379a000000000000000000000000000000000000000000000000000000000815260040161151e906123cd565b60405180910390fd5b600073ffffffffffffffffffffffffffffffffffffffff168273ffffffffffffffffffffffffffffffffffffffff161415611597576040517f08c379a000000000000000000000000000000000000000000000000000000000815260040161158e906122cd565b60405180910390fd5b6115a2838383611bd4565b60008060008573ffffffffffffffffffffffffffffffffffffffff1673ffffffffffffffffffffffffffffffffffffffff16815260200190815260200160002054905081811015611628576040517f08c379a000000000000000000000000000000000000000000000000000000000815260040161161f9061232d565b60405180910390fd5b818161163491906125ba565b6000808673ffffffffffffffffffffffffffffffffffffffff1673ffffffffffffffffffffffffffffffffffffffff16815260200190815260200160002081905550816000808573ffffffffffffffffffffffffffffffffffffffff1673ffffffffffffffffffffffffffffffffffffffff16815260200190815260200160002060008282546116c4919061250a565b925050819055508273ffffffffffffffffffffffffffffffffffffffff168473ffffffffffffffffffffffffffffffffffffffff167fddf252ad1be2c89b69c2b068fc378daa952ba7f163c4a11628f55a4df523b3ef8460405161172891906124ad565b60405180910390a350505050565b6117408282610b2d565b6117cf576117658173ffffffffffffffffffffffffffffffffffffffff166014610f80565b6117738360001c6020610f80565b60405160200161178492919061221b565b6040516020818303038152906040526040517f08c379a00000000000000000000000000000000000000000000000000000000081526004016117c6919061228b565b60405180910390fd5b5050565b6117dd8282610b2d565b6118b05760016005600084815260200190815260200160002060000160008373ffffffffffffffffffffffffffffffffffffffff1673ffffffffffffffffffffffffffffffffffffffff16815260200190815260200160002060006101000a81548160ff0219169083151502179055506118556112e4565b73ffffffffffffffffffffffffffffffffffffffff168173ffffffffffffffffffffffffffffffffffffffff16837f2f8788117e7eff1d82e926ec794901d17c78024a50270940304540a733656f0d60405160405180910390a45b5050565b6118be8282610b2d565b156119925760006005600084815260200190815260200160002060000160008373ffffffffffffffffffffffffffffffffffffffff1673ffffffffffffffffffffffffffffffffffffffff16815260200190815260200160002060006101000a81548160ff0219169083151502179055506119376112e4565b73ffffffffffffffffffffffffffffffffffffffff168173ffffffffffffffffffffffffffffffffffffffff16837ff6391f5c32d9c69d2a47ea670b442974b53935d1edc7fd64eb21e047a839171b60405160405180910390a45b5050565b61199e610825565b816119a76106a4565b6119b1919061250a565b11156119f2576040517f08c379a00000000000000000000000000000000000000000000000000000000081526004016119e9906123ed565b60405180910390fd5b6119fc8282611bd9565b5050565b600073ffffffffffffffffffffffffffffffffffffffff168273ffffffffffffffffffffffffffffffffffffffff161415611a70576040517f08c379a0000000000000000000000000000000000000000000000000000000008152600401611a67906123ad565b60405180910390fd5b611a7c82600083611bd4565b60008060008473ffffffffffffffffffffffffffffffffffffffff1673ffffffffffffffffffffffffffffffffffffffff16815260200190815260200160002054905081811015611b02576040517f08c379a0000000000000000000000000000000000000000000000000000000008152600401611af9906122ed565b60405180910390fd5b8181611b0e91906125ba565b6000808573ffffffffffffffffffffffffffffffffffffffff1673ffffffffffffffffffffffffffffffffffffffff168152602001908152602001600020819055508160026000828254611b6291906125ba565b92505081905550600073ffffffffffffffffffffffffffffffffffffffff168373ffffffffffffffffffffffffffffffffffffffff167fddf252ad1be2c89b69c2b068fc378daa952ba7f163c4a11628f55a4df523b3ef84604051611bc791906124ad565b60405180910390a3505050565b505050565b600073ffffffffffffffffffffffffffffffffffffffff168273ffffffffffffffffffffffffffffffffffffffff161415611c49576040517f08c379a0000000000000000000000000000000000000000000000000000000008152600401611c409061248d565b60405180910390fd5b611c5560008383611bd4565b8060026000828254611c67919061250a565b92505081905550806000808473ffffffffffffffffffffffffffffffffffffffff1673ffffffffffffffffffffffffffffffffffffffff1681526020019081526020016000206000828254611cbc919061250a565b925050819055508173ffffffffffffffffffffffffffffffffffffffff16600073ffffffffffffffffffffffffffffffffffffffff167fddf252ad1be2c89b69c2b068fc378daa952ba7f163c4a11628f55a4df523b3ef83604051611d2191906124ad565b60405180910390a35050565b600081359050611d3c81612bd5565b92915050565b600081359050611d5181612bec565b92915050565b600081359050611d6681612c03565b92915050565b600081359050611d7b81612c1a565b92915050565b600060208284031215611d9357600080fd5b6000611da184828501611d2d565b91505092915050565b60008060408385031215611dbd57600080fd5b6000611dcb85828601611d2d565b9250506020611ddc85828601611d2d565b9150509250929050565b600080600060608486031215611dfb57600080fd5b6000611e0986828701611d2d565b9350506020611e1a86828701611d2d565b9250506040611e2b86828701611d6c565b9150509250925092565b60008060408385031215611e4857600080fd5b6000611e5685828601611d2d565b9250506020611e6785828601611d6c565b9150509250929050565b600060208284031215611e8357600080fd5b6000611e9184828501611d42565b91505092915050565b60008060408385031215611ead57600080fd5b6000611ebb85828601611d42565b9250506020611ecc85828601611d2d565b9150509250929050565b600060208284031215611ee857600080fd5b6000611ef684828501611d57565b91505092915050565b611f0881612600565b82525050565b611f178161260c565b82525050565b6000611f28826124e3565b611f3281856124ee565b9350611f42818560208601612679565b611f4b81612766565b840191505092915050565b6000611f61826124e3565b611f6b81856124ff565b9350611f7b818560208601612679565b80840191505092915050565b6000611f946020836124ee565b9150611f9f82612777565b602082019050919050565b6000611fb76023836124ee565b9150611fc2826127a0565b604082019050919050565b6000611fda6022836124ee565b9150611fe5826127ef565b604082019050919050565b6000611ffd6022836124ee565b91506120088261283e565b604082019050919050565b60006120206026836124ee565b915061202b8261288d565b604082019050919050565b6000612043600a836124ee565b915061204e826128dc565b602082019050919050565b6000612066600a836124ee565b915061207182612905565b602082019050919050565b60006120896028836124ee565b91506120948261292e565b604082019050919050565b60006120ac6021836124ee565b91506120b78261297d565b604082019050919050565b60006120cf6025836124ee565b91506120da826129cc565b604082019050919050565b60006120f26019836124ee565b91506120fd82612a1b565b602082019050919050565b60006121156024836124ee565b915061212082612a44565b604082019050919050565b60006121386017836124ff565b915061214382612a93565b601782019050919050565b600061215b6025836124ee565b915061216682612abc565b604082019050919050565b600061217e6011836124ff565b915061218982612b0b565b601182019050919050565b60006121a16009836124ee565b91506121ac82612b34565b602082019050919050565b60006121c4602f836124ee565b91506121cf82612b5d565b604082019050919050565b60006121e7601f836124ee565b91506121f282612bac565b602082019050919050565b61220681612662565b82525050565b6122158161266c565b82525050565b60006122268261212b565b91506122328285611f56565b915061223d82612171565b91506122498284611f56565b91508190509392505050565b600060208201905061226a6000830184611eff565b92915050565b60006020820190506122856000830184611f0e565b92915050565b600060208201905081810360008301526122a58184611f1d565b905092915050565b600060208201905081810360008301526122c681611f87565b9050919050565b600060208201905081810360008301526122e681611faa565b9050919050565b6000602082019050818103600083015261230681611fcd565b9050919050565b6000602082019050818103600083015261232681611ff0565b9050919050565b6000602082019050818103600083015261234681612013565b9050919050565b6000602082019050818103600083015261236681612036565b9050919050565b6000602082019050818103600083015261238681612059565b9050919050565b600060208201905081810360008301526123a68161207c565b9050919050565b600060208201905081810360008301526123c68161209f565b9050919050565b600060208201905081810360008301526123e6816120c2565b9050919050565b60006020820190508181036000830152612406816120e5565b9050919050565b6000602082019050818103600083015261242681612108565b9050919050565b600060208201905081810360008301526124468161214e565b9050919050565b6000602082019050818103600083015261246681612194565b9050919050565b60006020820190508181036000830152612486816121b7565b9050919050565b600060208201905081810360008301526124a6816121da565b9050919050565b60006020820190506124c260008301846121fd565b92915050565b60006020820190506124dd600083018461220c565b92915050565b600081519050919050565b600082825260208201905092915050565b600081905092915050565b600061251582612662565b915061252083612662565b9250827fffffffffffffffffffffffffffffffffffffffffffffffffffffffffffffffff0382111561255557612554612708565b5b828201905092915050565b600061256b82612662565b915061257683612662565b9250817fffffffffffffffffffffffffffffffffffffffffffffffffffffffffffffffff04831182151516156125af576125ae612708565b5b828202905092915050565b60006125c582612662565b91506125d083612662565b9250828210156125e3576125e2612708565b5b828203905092915050565b60006125f982612642565b9050919050565b60008115159050919050565b6000819050919050565b60007fffffffff0000000000000000000000000000000000000000000000000000000082169050919050565b600073ffffffffffffffffffffffffffffffffffffffff82169050919050565b6000819050919050565b600060ff82169050919050565b60005b8381101561269757808201518184015260208101905061267c565b838111156126a6576000848401525b50505050565b60006126b782612662565b915060008214156126cb576126ca612708565b5b600182039050919050565b600060028204905060018216806126ee57607f821691505b6020821081141561270257612701612737565b5b50919050565b7f4e487b7100000000000000000000000000000000000000000000000000000000600052601160045260246000fd5b7f4e487b7100000000000000000000000000000000000000000000000000000000600052602260045260246000fd5b6000601f19601f8301169050919050565b7f537472696e67733a20686578206c656e67746820696e73756666696369656e74600082015250565b7f45524332303a207472616e7366657220746f20746865207a65726f206164647260008201527f6573730000000000000000000000000000000000000000000000000000000000602082015250565b7f45524332303a206275726e20616d6f756e7420657863656564732062616c616e60008201527f6365000000000000000000000000000000000000000000000000000000000000602082015250565b7f45524332303a20617070726f766520746f20746865207a65726f20616464726560008201527f7373000000000000000000000000000000000000000000000000000000000000602082015250565b7f45524332303a207472616e7366657220616d6f756e742065786365656473206260008201527f616c616e63650000000000000000000000000000000000000000000000000000602082015250565b7f4e6f74206d696e74657200000000000000000000000000000000000000000000600082015250565b7f4e6f74206275726e657200000000000000000000000000000000000000000000600082015250565b7f45524332303a207472616e7366657220616d6f756e742065786365656473206160008201527f6c6c6f77616e6365000000000000000000000000000000000000000000000000602082015250565b7f45524332303a206275726e2066726f6d20746865207a65726f2061646472657360008201527f7300000000000000000000000000000000000000000000000000000000000000602082015250565b7f45524332303a207472616e736665722066726f6d20746865207a65726f20616460008201527f6472657373000000000000000000000000000000000000000000000000000000602082015250565b7f45524332304361707065643a2063617020657863656564656400000000000000600082015250565b7f45524332303a20617070726f76652066726f6d20746865207a65726f2061646460008201527f7265737300000000000000000000000000000000000000000000000000000000602082015250565b7f416363657373436f6e74726f6c3a206163636f756e7420000000000000000000600082015250565b7f45524332303a2064656372656173656420616c6c6f77616e63652062656c6f7760008201527f207a65726f000000000000000000000000000000000000000000000000000000602082015250565b7f206973206d697373696e6720726f6c6520000000000000000000000000000000600082015250565b7f4e6f742061646d696e0000000000000000000000000000000000000000000000600082015250565b7f416363657373436f6e74726f6c3a2063616e206f6e6c792072656e6f756e636560008201527f20726f6c657320666f722073656c660000000000000000000000000000000000602082015250565b7f45524332303a206d696e7420746f20746865207a65726f206164647265737300600082015250565b612bde816125ee565b8114612be957600080fd5b50565b612bf58161260c565b8114612c0057600080fd5b50565b612c0c81612616565b8114612c1757600080fd5b50565b612c2381612662565b8114612c2e57600080fd5b5056fea26469706673582212203d082b3f44ee08a8a7f417f7e08a692f8c05b8a65f8f4d2fab276e7cad77ad3464736f6c63430008040033",
  "immutableReferences": {
    "1792": [
      {
        "length": 32,
        "start": 2089
      }
    ]
  },
  "source": "// SPDX-License-Identifier: AGPL-3.0-or-later\npragma solidity ^0.8.0;\n\nimport \"@openzeppelin/contracts/access/AccessControl.sol\";\nimport \"@openzeppelin/contracts/token/ERC20/extensions/ERC20Capped.sol\";\n\ncontract MondrainERC20 is ERC20Capped, AccessControl {\n    bytes32 public constant MINTER_ROLE = keccak256(\"MINTER_ROLE\");\n    bytes32 public constant BURNER_ROLE = keccak256(\"BURNER_ROLE\");\n\n    uint256 maxTokens = 10000000000 * (10 ** 18); //10 billion tokens\n\n    modifier onlyAdmin {\n       require(hasRole(DEFAULT_ADMIN_ROLE, msg.sender), \"Not admin\");\n       _;\n    }\n\n    modifier onlyMinter {\n       require(hasRole(MINTER_ROLE, msg.sender), \"Not minter\");\n       _;\n    }\n\n    modifier onlyBurner {\n       require(hasRole(BURNER_ROLE, msg.sender), \"Not burner\");\n       _;\n    }\n\n    constructor() public ERC20(\"mondrain\", \"XMD\") ERC20Capped(maxTokens) {\n        // Grant the contract deployer the default admin role: it will be able\n        // to grant and revoke any roles\n        _setupRole(DEFAULT_ADMIN_ROLE, msg.sender);\n        grantRole(MINTER_ROLE, msg.sender);\n        grantRole(BURNER_ROLE, msg.sender);\n    }\n\n    function mint(address to, uint256 amount) public onlyMinter {\n        _mint(to, amount);\n    }\n\n    function burn(address from, uint256 amount) public onlyBurner {\n        _burn(from, amount);\n    }\n\n    function grantMinterRole(address newMinter) public onlyAdmin {\n        grantRole(MINTER_ROLE, newMinter);\n    }\n    \n    function grantBurnerRole(address newBurner) public onlyAdmin {\n        grantRole(BURNER_ROLE, newBurner);\n    }\n\n    function revokeMinterRole(address minter) public onlyAdmin {\n        revokeRole(MINTER_ROLE, minter);\n    }\n    \n    function revokeBurnerRole(address burner) public onlyAdmin {\n        revokeRole(BURNER_ROLE, burner);\n    }\n\n}",
  "sourcePath": "/Users/alessandrobartalucci/nft2/mondrian/contracts/MondrainERC20.sol",
  "compiler": {
    "name": "solc",
    "version": "0.8.4+commit.c7e474f2.Emscripten.clang"
  },
  "schemaVersion": "3.3.4",
  "updatedAt": "2021-05-28T21:42:17.157Z",
  "networkType": "ethereum",
  "devdoc": {
    "kind": "dev",
    "methods": {
      "allowance(address,address)": {
        "details": "See {IERC20-allowance}."
      },
      "approve(address,uint256)": {
        "details": "See {IERC20-approve}. Requirements: - `spender` cannot be the zero address."
      },
      "balanceOf(address)": {
        "details": "See {IERC20-balanceOf}."
      },
      "cap()": {
        "details": "Returns the cap on the token's total supply."
      },
      "decimals()": {
        "details": "Returns the number of decimals used to get its user representation. For example, if `decimals` equals `2`, a balance of `505` tokens should be displayed to a user as `5,05` (`505 / 10 ** 2`). Tokens usually opt for a value of 18, imitating the relationship between Ether and Wei. This is the value {ERC20} uses, unless this function is overridden; NOTE: This information is only used for _display_ purposes: it in no way affects any of the arithmetic of the contract, including {IERC20-balanceOf} and {IERC20-transfer}."
      },
      "decreaseAllowance(address,uint256)": {
        "details": "Atomically decreases the allowance granted to `spender` by the caller. This is an alternative to {approve} that can be used as a mitigation for problems described in {IERC20-approve}. Emits an {Approval} event indicating the updated allowance. Requirements: - `spender` cannot be the zero address. - `spender` must have allowance for the caller of at least `subtractedValue`."
      },
      "getRoleAdmin(bytes32)": {
        "details": "Returns the admin role that controls `role`. See {grantRole} and {revokeRole}. To change a role's admin, use {_setRoleAdmin}."
      },
      "grantRole(bytes32,address)": {
        "details": "Grants `role` to `account`. If `account` had not been already granted `role`, emits a {RoleGranted} event. Requirements: - the caller must have ``role``'s admin role."
      },
      "hasRole(bytes32,address)": {
        "details": "Returns `true` if `account` has been granted `role`."
      },
      "increaseAllowance(address,uint256)": {
        "details": "Atomically increases the allowance granted to `spender` by the caller. This is an alternative to {approve} that can be used as a mitigation for problems described in {IERC20-approve}. Emits an {Approval} event indicating the updated allowance. Requirements: - `spender` cannot be the zero address."
      },
      "name()": {
        "details": "Returns the name of the token."
      },
      "renounceRole(bytes32,address)": {
        "details": "Revokes `role` from the calling account. Roles are often managed via {grantRole} and {revokeRole}: this function's purpose is to provide a mechanism for accounts to lose their privileges if they are compromised (such as when a trusted device is misplaced). If the calling account had been granted `role`, emits a {RoleRevoked} event. Requirements: - the caller must be `account`."
      },
      "revokeRole(bytes32,address)": {
        "details": "Revokes `role` from `account`. If `account` had been granted `role`, emits a {RoleRevoked} event. Requirements: - the caller must have ``role``'s admin role."
      },
      "supportsInterface(bytes4)": {
        "details": "See {IERC165-supportsInterface}."
      },
      "symbol()": {
        "details": "Returns the symbol of the token, usually a shorter version of the name."
      },
      "totalSupply()": {
        "details": "See {IERC20-totalSupply}."
      },
      "transfer(address,uint256)": {
        "details": "See {IERC20-transfer}. Requirements: - `recipient` cannot be the zero address. - the caller must have a balance of at least `amount`."
      },
      "transferFrom(address,address,uint256)": {
        "details": "See {IERC20-transferFrom}. Emits an {Approval} event indicating the updated allowance. This is not required by the EIP. See the note at the beginning of {ERC20}. Requirements: - `sender` and `recipient` cannot be the zero address. - `sender` must have a balance of at least `amount`. - the caller must have allowance for ``sender``'s tokens of at least `amount`."
      }
    },
    "version": 1
  },
  "userdoc": {
    "kind": "user",
    "methods": {},
    "version": 1
  }
}