{
  "contractName": "MondrainERC721",
  "abi": [
    {
      "inputs": [
        {
          "internalType": "address",
          "name": "lotteryRunner",
          "type": "address"
        }
      ],
      "stateMutability": "nonpayable",
      "type": "constructor"
    },
    {
      "anonymous": false,
      "inputs": [
        {
          "indexed": true,
          "internalType": "address",
          "name": "owner",
          "type": "address"
        },
        {
          "indexed": true,
          "internalType": "address",
          "name": "approved",
          "type": "address"
        },
        {
          "indexed": true,
          "internalType": "uint256",
          "name": "tokenId",
          "type": "uint256"
        }
      ],
      "name": "Approval",
      "type": "event"
    },
    {
      "anonymous": false,
      "inputs": [
        {
          "indexed": true,
          "internalType": "address",
          "name": "owner",
          "type": "address"
        },
        {
          "indexed": true,
          "internalType": "address",
          "name": "operator",
          "type": "address"
        },
        {
          "indexed": false,
          "internalType": "bool",
          "name": "approved",
          "type": "bool"
        }
      ],
      "name": "ApprovalForAll",
      "type": "event"
    },
    {
      "anonymous": false,
      "inputs": [
        {
          "indexed": true,
          "internalType": "bytes32",
          "name": "role",
          "type": "bytes32"
        },
        {
          "indexed": true,
          "internalType": "bytes32",
          "name": "previousAdminRole",
          "type": "bytes32"
        },
        {
          "indexed": true,
          "internalType": "bytes32",
          "name": "newAdminRole",
          "type": "bytes32"
        }
      ],
      "name": "RoleAdminChanged",
      "type": "event"
    },
    {
      "anonymous": false,
      "inputs": [
        {
          "indexed": true,
          "internalType": "bytes32",
          "name": "role",
          "type": "bytes32"
        },
        {
          "indexed": true,
          "internalType": "address",
          "name": "account",
          "type": "address"
        },
        {
          "indexed": true,
          "internalType": "address",
          "name": "sender",
          "type": "address"
        }
      ],
      "name": "RoleGranted",
      "type": "event"
    },
    {
      "anonymous": false,
      "inputs": [
        {
          "indexed": true,
          "internalType": "bytes32",
          "name": "role",
          "type": "bytes32"
        },
        {
          "indexed": true,
          "internalType": "address",
          "name": "account",
          "type": "address"
        },
        {
          "indexed": true,
          "internalType": "address",
          "name": "sender",
          "type": "address"
        }
      ],
      "name": "RoleRevoked",
      "type": "event"
    },
    {
      "anonymous": false,
      "inputs": [
        {
          "indexed": true,
          "internalType": "address",
          "name": "from",
          "type": "address"
        },
        {
          "indexed": true,
          "internalType": "address",
          "name": "to",
          "type": "address"
        },
        {
          "indexed": true,
          "internalType": "uint256",
          "name": "tokenId",
          "type": "uint256"
        }
      ],
      "name": "Transfer",
      "type": "event"
    },
    {
      "inputs": [],
      "name": "DEFAULT_ADMIN_ROLE",
      "outputs": [
        {
          "internalType": "bytes32",
          "name": "",
          "type": "bytes32"
        }
      ],
      "stateMutability": "view",
      "type": "function",
      "constant": true
    },
    {
      "inputs": [
        {
          "internalType": "address",
          "name": "to",
          "type": "address"
        },
        {
          "internalType": "uint256",
          "name": "tokenId",
          "type": "uint256"
        }
      ],
      "name": "approve",
      "outputs": [],
      "stateMutability": "nonpayable",
      "type": "function"
    },
    {
      "inputs": [
        {
          "internalType": "address",
          "name": "owner",
          "type": "address"
        }
      ],
      "name": "balanceOf",
      "outputs": [
        {
          "internalType": "uint256",
          "name": "",
          "type": "uint256"
        }
      ],
      "stateMutability": "view",
      "type": "function",
      "constant": true
    },
    {
      "inputs": [
        {
          "internalType": "uint256",
          "name": "tokenId",
          "type": "uint256"
        }
      ],
      "name": "getApproved",
      "outputs": [
        {
          "internalType": "address",
          "name": "",
          "type": "address"
        }
      ],
      "stateMutability": "view",
      "type": "function",
      "constant": true
    },
    {
      "inputs": [
        {
          "internalType": "bytes32",
          "name": "role",
          "type": "bytes32"
        }
      ],
      "name": "getRoleAdmin",
      "outputs": [
        {
          "internalType": "bytes32",
          "name": "",
          "type": "bytes32"
        }
      ],
      "stateMutability": "view",
      "type": "function",
      "constant": true
    },
    {
      "inputs": [
        {
          "internalType": "bytes32",
          "name": "role",
          "type": "bytes32"
        },
        {
          "internalType": "address",
          "name": "account",
          "type": "address"
        }
      ],
      "name": "grantRole",
      "outputs": [],
      "stateMutability": "nonpayable",
      "type": "function"
    },
    {
      "inputs": [
        {
          "internalType": "bytes32",
          "name": "role",
          "type": "bytes32"
        },
        {
          "internalType": "address",
          "name": "account",
          "type": "address"
        }
      ],
      "name": "hasRole",
      "outputs": [
        {
          "internalType": "bool",
          "name": "",
          "type": "bool"
        }
      ],
      "stateMutability": "view",
      "type": "function",
      "constant": true
    },
    {
      "inputs": [
        {
          "internalType": "address",
          "name": "owner",
          "type": "address"
        },
        {
          "internalType": "address",
          "name": "operator",
          "type": "address"
        }
      ],
      "name": "isApprovedForAll",
      "outputs": [
        {
          "internalType": "bool",
          "name": "",
          "type": "bool"
        }
      ],
      "stateMutability": "view",
      "type": "function",
      "constant": true
    },
    {
      "inputs": [],
      "name": "name",
      "outputs": [
        {
          "internalType": "string",
          "name": "",
          "type": "string"
        }
      ],
      "stateMutability": "view",
      "type": "function",
      "constant": true
    },
    {
      "inputs": [
        {
          "internalType": "uint256",
          "name": "tokenId",
          "type": "uint256"
        }
      ],
      "name": "ownerOf",
      "outputs": [
        {
          "internalType": "address",
          "name": "",
          "type": "address"
        }
      ],
      "stateMutability": "view",
      "type": "function",
      "constant": true
    },
    {
      "inputs": [
        {
          "internalType": "bytes32",
          "name": "role",
          "type": "bytes32"
        },
        {
          "internalType": "address",
          "name": "account",
          "type": "address"
        }
      ],
      "name": "renounceRole",
      "outputs": [],
      "stateMutability": "nonpayable",
      "type": "function"
    },
    {
      "inputs": [
        {
          "internalType": "bytes32",
          "name": "role",
          "type": "bytes32"
        },
        {
          "internalType": "address",
          "name": "account",
          "type": "address"
        }
      ],
      "name": "revokeRole",
      "outputs": [],
      "stateMutability": "nonpayable",
      "type": "function"
    },
    {
      "inputs": [
        {
          "internalType": "address",
          "name": "from",
          "type": "address"
        },
        {
          "internalType": "address",
          "name": "to",
          "type": "address"
        },
        {
          "internalType": "uint256",
          "name": "tokenId",
          "type": "uint256"
        }
      ],
      "name": "safeTransferFrom",
      "outputs": [],
      "stateMutability": "nonpayable",
      "type": "function"
    },
    {
      "inputs": [
        {
          "internalType": "address",
          "name": "from",
          "type": "address"
        },
        {
          "internalType": "address",
          "name": "to",
          "type": "address"
        },
        {
          "internalType": "uint256",
          "name": "tokenId",
          "type": "uint256"
        },
        {
          "internalType": "bytes",
          "name": "_data",
          "type": "bytes"
        }
      ],
      "name": "safeTransferFrom",
      "outputs": [],
      "stateMutability": "nonpayable",
      "type": "function"
    },
    {
      "inputs": [
        {
          "internalType": "address",
          "name": "operator",
          "type": "address"
        },
        {
          "internalType": "bool",
          "name": "approved",
          "type": "bool"
        }
      ],
      "name": "setApprovalForAll",
      "outputs": [],
      "stateMutability": "nonpayable",
      "type": "function"
    },
    {
      "inputs": [],
      "name": "symbol",
      "outputs": [
        {
          "internalType": "string",
          "name": "",
          "type": "string"
        }
      ],
      "stateMutability": "view",
      "type": "function",
      "constant": true
    },
    {
      "inputs": [
        {
          "internalType": "uint256",
          "name": "tokenId",
          "type": "uint256"
        }
      ],
      "name": "tokenURI",
      "outputs": [
        {
          "internalType": "string",
          "name": "",
          "type": "string"
        }
      ],
      "stateMutability": "view",
      "type": "function",
      "constant": true
    },
    {
      "inputs": [
        {
          "internalType": "uint256",
          "name": "",
          "type": "uint256"
        }
      ],
      "name": "tokens",
      "outputs": [
        {
          "internalType": "string",
          "name": "",
          "type": "string"
        }
      ],
      "stateMutability": "view",
      "type": "function",
      "constant": true
    },
    {
      "inputs": [
        {
          "internalType": "address",
          "name": "from",
          "type": "address"
        },
        {
          "internalType": "address",
          "name": "to",
          "type": "address"
        },
        {
          "internalType": "uint256",
          "name": "tokenId",
          "type": "uint256"
        }
      ],
      "name": "transferFrom",
      "outputs": [],
      "stateMutability": "nonpayable",
      "type": "function"
    },
    {
      "inputs": [
        {
          "internalType": "bytes4",
          "name": "interfaceId",
          "type": "bytes4"
        }
      ],
      "name": "supportsInterface",
      "outputs": [
        {
          "internalType": "bool",
          "name": "",
          "type": "bool"
        }
      ],
      "stateMutability": "view",
      "type": "function",
      "constant": true
    },
    {
      "inputs": [
        {
          "internalType": "string",
          "name": "_token",
          "type": "string"
        },
        {
          "internalType": "string",
          "name": "_tokenURI",
          "type": "string"
        }
      ],
      "name": "mint",
      "outputs": [],
      "stateMutability": "payable",
      "type": "function",
      "payable": true
    },
    {
      "inputs": [
        {
          "internalType": "uint256",
          "name": "seed",
          "type": "uint256"
        }
      ],
      "name": "setRandomSeed",
      "outputs": [],
      "stateMutability": "nonpayable",
      "type": "function"
    },
    {
      "inputs": [
        {
          "internalType": "uint256",
          "name": "amount",
          "type": "uint256"
        }
      ],
      "name": "setMintingFee",
      "outputs": [],
      "stateMutability": "nonpayable",
      "type": "function"
    },
    {
      "inputs": [],
      "name": "getMintingFee",
      "outputs": [
        {
          "internalType": "uint256",
          "name": "",
          "type": "uint256"
        }
      ],
      "stateMutability": "view",
      "type": "function",
      "constant": true
    },
    {
      "inputs": [
        {
          "internalType": "uint256",
          "name": "amount",
          "type": "uint256"
        }
      ],
      "name": "setLotteryFee",
      "outputs": [],
      "stateMutability": "nonpayable",
      "type": "function"
    },
    {
      "inputs": [],
      "name": "getLotteryFee",
      "outputs": [
        {
          "internalType": "uint256",
          "name": "",
          "type": "uint256"
        }
      ],
      "stateMutability": "view",
      "type": "function",
      "constant": true
    },
    {
      "inputs": [],
      "name": "getRandomTokenId",
      "outputs": [
        {
          "internalType": "uint256",
          "name": "",
          "type": "uint256"
        }
      ],
      "stateMutability": "nonpayable",
      "type": "function"
    },
    {
      "inputs": [],
      "name": "totalSupply",
      "outputs": [
        {
          "internalType": "uint256",
          "name": "",
          "type": "uint256"
        }
      ],
      "stateMutability": "view",
      "type": "function",
      "constant": true
    },
    {
      "inputs": [
        {
          "internalType": "string",
          "name": "_token",
          "type": "string"
        }
      ],
      "name": "getTokenId",
      "outputs": [
        {
          "internalType": "uint256",
          "name": "",
          "type": "uint256"
        }
      ],
      "stateMutability": "view",
      "type": "function",
      "constant": true
    },
    {
      "inputs": [
        {
          "internalType": "string",
          "name": "str",
          "type": "string"
        }
      ],
      "name": "testStrLength",
      "outputs": [
        {
          "internalType": "bool",
          "name": "",
          "type": "bool"
        }
      ],
      "stateMutability": "pure",
      "type": "function",
      "constant": true
    },
    {
      "inputs": [
        {
          "internalType": "string",
          "name": "str",
          "type": "string"
        }
      ],
      "name": "testStrNonEmptyFirstLastChar",
      "outputs": [
        {
          "internalType": "bool",
          "name": "",
          "type": "bool"
        }
      ],
      "stateMutability": "pure",
      "type": "function",
      "constant": true
    }
  ],
  "bytecode": "0x608060405266b1a2bc2ec50000600a55668e1bc9bf040000600b553480156200002757600080fd5b5060405162004beb38038062004beb83398181016040528101906200004d9190620003cd565b6040518060400160405280600c81526020017f6d6f6e647261696e2e78797a00000000000000000000000000000000000000008152506040518060400160405280600681526020017f51554144524f00000000000000000000000000000000000000000000000000008152508160009080519060200190620000d192919062000306565b508060019080519060200190620000ea92919062000306565b50505033600860006101000a81548173ffffffffffffffffffffffffffffffffffffffff021916908373ffffffffffffffffffffffffffffffffffffffff16021790555080600960006101000a81548173ffffffffffffffffffffffffffffffffffffffff021916908373ffffffffffffffffffffffffffffffffffffffff160217905550620001846000801b336200018b60201b60201c565b50620004ac565b6200019d8282620001a160201b60201c565b5050565b620001b382826200029360201b60201c565b6200028f5760016007600084815260200190815260200160002060000160008373ffffffffffffffffffffffffffffffffffffffff1673ffffffffffffffffffffffffffffffffffffffff16815260200190815260200160002060006101000a81548160ff02191690831515021790555062000234620002fe60201b60201c565b73ffffffffffffffffffffffffffffffffffffffff168173ffffffffffffffffffffffffffffffffffffffff16837f2f8788117e7eff1d82e926ec794901d17c78024a50270940304540a733656f0d60405160405180910390a45b5050565b60006007600084815260200190815260200160002060000160008373ffffffffffffffffffffffffffffffffffffffff1673ffffffffffffffffffffffffffffffffffffffff16815260200190815260200160002060009054906101000a900460ff16905092915050565b600033905090565b82805462000314906200042d565b90600052602060002090601f01602090048101928262000338576000855562000384565b82601f106200035357805160ff191683800117855562000384565b8280016001018555821562000384579182015b828111156200038357825182559160200191906001019062000366565b5b50905062000393919062000397565b5090565b5b80821115620003b257600081600090555060010162000398565b5090565b600081519050620003c78162000492565b92915050565b600060208284031215620003e057600080fd5b6000620003f084828501620003b6565b91505092915050565b600062000406826200040d565b9050919050565b600073ffffffffffffffffffffffffffffffffffffffff82169050919050565b600060028204905060018216806200044657607f821691505b602082108114156200045d576200045c62000463565b5b50919050565b7f4e487b7100000000000000000000000000000000000000000000000000000000600052602260045260246000fd5b6200049d81620003f9565b8114620004a957600080fd5b50565b61472f80620004bc6000396000f3fe6080604052600436106101d85760003560e01c80636352211e11610102578063a22cb46511610095578063cf72f71811610064578063cf72f71814610709578063d547741f14610734578063d5fc48041461075d578063e985e9c514610788576101d8565b8063a22cb4651461064f578063b59d88a914610678578063b88d4fde146106a3578063c87b56dd146106cc576101d8565b80638fec1c67116100d15780638fec1c671461057f57806391d14854146105bc57806395d89b41146105f9578063a217fddf14610624576101d8565b80636352211e146104c057806366fea1d4146104fd57806370a08231146105265780638aa0fdad14610563576101d8565b806323b872dd1161017a57806336568abe1161014957806336568abe1461040857806342842e0e146104315780634a67fa7d1461045a5780634f64b2be14610483576101d8565b806323b872dd1461033c578063248a9ca31461036557806326ffa14c146103a25780632f2ff15d146103df576101d8565b8063095ea7b3116101b6578063095ea7b31461028257806318160ddd146102ab5780631e7663bc146102d6578063238a470914610313576101d8565b806301ffc9a7146101dd57806306fdde031461021a578063081812fc14610245575b600080fd5b3480156101e957600080fd5b5061020460048036038101906101ff9190613010565b6107c5565b6040516102119190613720565b60405180910390f35b34801561022657600080fd5b5061022f6107d7565b60405161023c9190613756565b60405180910390f35b34801561025157600080fd5b5061026c6004803603810190610267919061310f565b610869565b60405161027991906136b9565b60405180910390f35b34801561028e57600080fd5b506102a960048036038101906102a49190612f6f565b6108ee565b005b3480156102b757600080fd5b506102c0610a06565b6040516102cd9190613a98565b60405180910390f35b3480156102e257600080fd5b506102fd60048036038101906102f89190613062565b610a13565b60405161030a9190613a98565b60405180910390f35b34801561031f57600080fd5b5061033a6004803603810190610335919061310f565b610a3b565b005b34801561034857600080fd5b50610363600480360381019061035e9190612e69565b610ad4565b005b34801561037157600080fd5b5061038c60048036038101906103879190612fab565b610b34565b604051610399919061373b565b60405180910390f35b3480156103ae57600080fd5b506103c960048036038101906103c49190613062565b610b54565b6040516103d69190613720565b60405180910390f35b3480156103eb57600080fd5b5061040660048036038101906104019190612fd4565b610c61565b005b34801561041457600080fd5b5061042f600480360381019061042a9190612fd4565b610c8a565b005b34801561043d57600080fd5b5061045860048036038101906104539190612e69565b610d0d565b005b34801561046657600080fd5b50610481600480360381019061047c919061310f565b610d2d565b005b34801561048f57600080fd5b506104aa60048036038101906104a5919061310f565b610dd3565b6040516104b79190613756565b60405180910390f35b3480156104cc57600080fd5b506104e760048036038101906104e2919061310f565b610e7f565b6040516104f491906136b9565b60405180910390f35b34801561050957600080fd5b50610524600480360381019061051f919061310f565b610f31565b005b34801561053257600080fd5b5061054d60048036038101906105489190612e04565b610f87565b60405161055a9190613a98565b60405180910390f35b61057d600480360381019061057891906130a3565b61103f565b005b34801561058b57600080fd5b506105a660048036038101906105a19190613062565b611281565b6040516105b39190613720565b60405180910390f35b3480156105c857600080fd5b506105e360048036038101906105de9190612fd4565b6112b3565b6040516105f09190613720565b60405180910390f35b34801561060557600080fd5b5061060e61131e565b60405161061b9190613756565b60405180910390f35b34801561063057600080fd5b506106396113b0565b604051610646919061373b565b60405180910390f35b34801561065b57600080fd5b5061067660048036038101906106719190612f33565b6113b7565b005b34801561068457600080fd5b5061068d611538565b60405161069a9190613a98565b60405180910390f35b3480156106af57600080fd5b506106ca60048036038101906106c59190612eb8565b611542565b005b3480156106d857600080fd5b506106f360048036038101906106ee919061310f565b6115a4565b6040516107009190613756565b60405180910390f35b34801561071557600080fd5b5061071e6116f6565b60405161072b9190613a98565b60405180910390f35b34801561074057600080fd5b5061075b60048036038101906107569190612fd4565b611700565b005b34801561076957600080fd5b50610772611729565b60405161077f9190613a98565b60405180910390f35b34801561079457600080fd5b506107af60048036038101906107aa9190612e2d565b6118c7565b6040516107bc9190613720565b60405180910390f35b60006107d08261195b565b9050919050565b6060600080546107e690613d7c565b80601f016020809104026020016040519081016040528092919081815260200182805461081290613d7c565b801561085f5780601f106108345761010080835404028352916020019161085f565b820191906000526020600020905b81548152906001019060200180831161084257829003601f168201915b5050505050905090565b6000610874826119d5565b6108b3576040517f08c379a00000000000000000000000000000000000000000000000000000000081526004016108aa90613958565b60405180910390fd5b6004600083815260200190815260200160002060009054906101000a900473ffffffffffffffffffffffffffffffffffffffff169050919050565b60006108f982610e7f565b90508073ffffffffffffffffffffffffffffffffffffffff168373ffffffffffffffffffffffffffffffffffffffff16141561096a576040517f08c379a0000000000000000000000000000000000000000000000000000000008152600401610961906139d8565b60405180910390fd5b8073ffffffffffffffffffffffffffffffffffffffff16610989611a41565b73ffffffffffffffffffffffffffffffffffffffff1614806109b857506109b7816109b2611a41565b6118c7565b5b6109f7576040517f08c379a00000000000000000000000000000000000000000000000000000000081526004016109ee90613878565b60405180910390fd5b610a018383611a49565b505050565b6000600c80549050905090565b6000600d82604051610a2591906135f6565b9081526020016040518091039020549050919050565b610a486000801b336112b3565b610a87576040517f08c379a0000000000000000000000000000000000000000000000000000000008152600401610a7e90613a38565b60405180910390fd5b60008111610aca576040517f08c379a0000000000000000000000000000000000000000000000000000000008152600401610ac190613978565b60405180910390fd5b80600a8190555050565b610ae5610adf611a41565b82611b02565b610b24576040517f08c379a0000000000000000000000000000000000000000000000000000000008152600401610b1b906139f8565b60405180910390fd5b610b2f838383611be0565b505050565b600060076000838152602001908152602001600020600101549050919050565b600080829050602060f81b81600081518110610b99577f4e487b7100000000000000000000000000000000000000000000000000000000600052603260045260246000fd5b602001015160f81c60f81b7effffffffffffffffffffffffffffffffffffffffffffffffffffffffffffff19161480610c475750602060f81b8160018351610be19190613c5e565b81518110610c18577f4e487b7100000000000000000000000000000000000000000000000000000000600052603260045260246000fd5b602001015160f81c60f81b7effffffffffffffffffffffffffffffffffffffffffffffffffffffffffffff1916145b15610c56576000915050610c5c565b60019150505b919050565b610c6a82610b34565b610c7b81610c76611a41565b611e3c565b610c858383611ed9565b505050565b610c92611a41565b73ffffffffffffffffffffffffffffffffffffffff168173ffffffffffffffffffffffffffffffffffffffff1614610cff576040517f08c379a0000000000000000000000000000000000000000000000000000000008152600401610cf690613a58565b60405180910390fd5b610d098282611fba565b5050565b610d2883838360405180602001604052806000815250611542565b505050565b610d3a6000801b336112b3565b610d79576040517f08c379a0000000000000000000000000000000000000000000000000000000008152600401610d7090613a38565b60405180910390fd5b600081600a54610d899190613c5e565b11610dc9576040517f08c379a0000000000000000000000000000000000000000000000000000000008152600401610dc0906138f8565b60405180910390fd5b80600b8190555050565b600c8181548110610de357600080fd5b906000526020600020016000915090508054610dfe90613d7c565b80601f0160208091040260200160405190810160405280929190818152602001828054610e2a90613d7c565b8015610e775780601f10610e4c57610100808354040283529160200191610e77565b820191906000526020600020905b815481529060010190602001808311610e5a57829003601f168201915b505050505081565b6000806002600084815260200190815260200160002060009054906101000a900473ffffffffffffffffffffffffffffffffffffffff169050600073ffffffffffffffffffffffffffffffffffffffff168173ffffffffffffffffffffffffffffffffffffffff161415610f28576040517f08c379a0000000000000000000000000000000000000000000000000000000008152600401610f1f906138b8565b60405180910390fd5b80915050919050565b610f3e6000801b336112b3565b610f7d576040517f08c379a0000000000000000000000000000000000000000000000000000000008152600401610f7490613a38565b60405180910390fd5b80600e8190555050565b60008073ffffffffffffffffffffffffffffffffffffffff168273ffffffffffffffffffffffffffffffffffffffff161415610ff8576040517f08c379a0000000000000000000000000000000000000000000000000000000008152600401610fef90613898565b60405180910390fd5b600360008373ffffffffffffffffffffffffffffffffffffffff1673ffffffffffffffffffffffffffffffffffffffff168152602001908152602001600020549050919050565b600a543414611083576040517f08c379a000000000000000000000000000000000000000000000000000000000815260040161107a90613a18565b60405180910390fd5b600082905061109183611281565b6110d0576040517f08c379a00000000000000000000000000000000000000000000000000000000081526004016110c790613a78565b60405180910390fd5b6110d983610b54565b611118576040517f08c379a000000000000000000000000000000000000000000000000000000000815260040161110f906137b8565b60405180910390fd5b6000818051906020012060001c9050611131338261209c565b61113b81846120ba565b600960009054906101000a900473ffffffffffffffffffffffffffffffffffffffff1673ffffffffffffffffffffffffffffffffffffffff166108fc600b549081150290604051600060405180830381858888f193505050501580156111a5573d6000803e3d6000fd5b50600860009054906101000a900473ffffffffffffffffffffffffffffffffffffffff1673ffffffffffffffffffffffffffffffffffffffff166108fc600b54346111f09190613c5e565b9081150290604051600060405180830381858888f1935050505015801561121b573d6000803e3d6000fd5b50600c84908060018154018082558091505060019003906000526020600020016000909190919091509080519060200190611257929190612c13565b5080600d8560405161126991906135f6565b90815260200160405180910390208190555050505050565b60008082905060008151148061129957506110c78151115b156112a85760009150506112ae565b60019150505b919050565b60006007600084815260200190815260200160002060000160008373ffffffffffffffffffffffffffffffffffffffff1673ffffffffffffffffffffffffffffffffffffffff16815260200190815260200160002060009054906101000a900460ff16905092915050565b60606001805461132d90613d7c565b80601f016020809104026020016040519081016040528092919081815260200182805461135990613d7c565b80156113a65780601f1061137b576101008083540402835291602001916113a6565b820191906000526020600020905b81548152906001019060200180831161138957829003601f168201915b5050505050905090565b6000801b81565b6113bf611a41565b73ffffffffffffffffffffffffffffffffffffffff168273ffffffffffffffffffffffffffffffffffffffff16141561142d576040517f08c379a000000000000000000000000000000000000000000000000000000000815260040161142490613818565b60405180910390fd5b806005600061143a611a41565b73ffffffffffffffffffffffffffffffffffffffff1673ffffffffffffffffffffffffffffffffffffffff16815260200190815260200160002060008473ffffffffffffffffffffffffffffffffffffffff1673ffffffffffffffffffffffffffffffffffffffff16815260200190815260200160002060006101000a81548160ff0219169083151502179055508173ffffffffffffffffffffffffffffffffffffffff166114e7611a41565b73ffffffffffffffffffffffffffffffffffffffff167f17307eab39ab6107e8899845ad3d59bd9653f200f220920489ca2b5937696c318360405161152c9190613720565b60405180910390a35050565b6000600a54905090565b61155361154d611a41565b83611b02565b611592576040517f08c379a0000000000000000000000000000000000000000000000000000000008152600401611589906139f8565b60405180910390fd5b61159e8484848461212e565b50505050565b60606115af826119d5565b6115ee576040517f08c379a00000000000000000000000000000000000000000000000000000000081526004016115e590613938565b60405180910390fd5b600060066000848152602001908152602001600020805461160e90613d7c565b80601f016020809104026020016040519081016040528092919081815260200182805461163a90613d7c565b80156116875780601f1061165c57610100808354040283529160200191611687565b820191906000526020600020905b81548152906001019060200180831161166a57829003601f168201915b50505050509050600061169861218a565b90506000815114156116ae5781925050506116f1565b6000825111156116e35780826040516020016116cb92919061360d565b604051602081830303815290604052925050506116f1565b6116ec846121a1565b925050505b919050565b6000600b54905090565b61170982610b34565b61171a81611715611a41565b611e3c565b6117248383611fba565b505050565b600080600c8054905011611772576040517f08c379a000000000000000000000000000000000000000000000000000000000815260040161176990613858565b60405180910390fd5b6000600c80549050444233600e54604051602001611793949392919061366b565b6040516020818303038152906040528051906020012060001c6117b69190613e56565b9050600e60008154809291906117cb90613ddf565b91905055506000600c828154811061180c577f4e487b7100000000000000000000000000000000000000000000000000000000600052603260045260246000fd5b90600052602060002001805461182190613d7c565b80601f016020809104026020016040519081016040528092919081815260200182805461184d90613d7c565b801561189a5780601f1061186f5761010080835404028352916020019161189a565b820191906000526020600020905b81548152906001019060200180831161187d57829003601f168201915b50505050509050600d816040516118b191906135f6565b9081526020016040518091039020549250505090565b6000600560008473ffffffffffffffffffffffffffffffffffffffff1673ffffffffffffffffffffffffffffffffffffffff16815260200190815260200160002060008373ffffffffffffffffffffffffffffffffffffffff1673ffffffffffffffffffffffffffffffffffffffff16815260200190815260200160002060009054906101000a900460ff16905092915050565b60007f7965db0b000000000000000000000000000000000000000000000000000000007bffffffffffffffffffffffffffffffffffffffffffffffffffffffff1916827bffffffffffffffffffffffffffffffffffffffffffffffffffffffff191614806119ce57506119cd82612248565b5b9050919050565b60008073ffffffffffffffffffffffffffffffffffffffff166002600084815260200190815260200160002060009054906101000a900473ffffffffffffffffffffffffffffffffffffffff1673ffffffffffffffffffffffffffffffffffffffff1614159050919050565b600033905090565b816004600083815260200190815260200160002060006101000a81548173ffffffffffffffffffffffffffffffffffffffff021916908373ffffffffffffffffffffffffffffffffffffffff160217905550808273ffffffffffffffffffffffffffffffffffffffff16611abc83610e7f565b73ffffffffffffffffffffffffffffffffffffffff167f8c5be1e5ebec7d5bd14f71427d1e84f3dd0314c0f7b2291e5b200ac8c7c3b92560405160405180910390a45050565b6000611b0d826119d5565b611b4c576040517f08c379a0000000000000000000000000000000000000000000000000000000008152600401611b4390613838565b60405180910390fd5b6000611b5783610e7f565b90508073ffffffffffffffffffffffffffffffffffffffff168473ffffffffffffffffffffffffffffffffffffffff161480611bc657508373ffffffffffffffffffffffffffffffffffffffff16611bae84610869565b73ffffffffffffffffffffffffffffffffffffffff16145b80611bd75750611bd681856118c7565b5b91505092915050565b8273ffffffffffffffffffffffffffffffffffffffff16611c0082610e7f565b73ffffffffffffffffffffffffffffffffffffffff1614611c56576040517f08c379a0000000000000000000000000000000000000000000000000000000008152600401611c4d90613998565b60405180910390fd5b600073ffffffffffffffffffffffffffffffffffffffff168273ffffffffffffffffffffffffffffffffffffffff161415611cc6576040517f08c379a0000000000000000000000000000000000000000000000000000000008152600401611cbd906137f8565b60405180910390fd5b611cd183838361232a565b611cdc600082611a49565b6001600360008573ffffffffffffffffffffffffffffffffffffffff1673ffffffffffffffffffffffffffffffffffffffff1681526020019081526020016000206000828254611d2c9190613c5e565b925050819055506001600360008473ffffffffffffffffffffffffffffffffffffffff1673ffffffffffffffffffffffffffffffffffffffff1681526020019081526020016000206000828254611d839190613b7d565b92505081905550816002600083815260200190815260200160002060006101000a81548173ffffffffffffffffffffffffffffffffffffffff021916908373ffffffffffffffffffffffffffffffffffffffff160217905550808273ffffffffffffffffffffffffffffffffffffffff168473ffffffffffffffffffffffffffffffffffffffff167fddf252ad1be2c89b69c2b068fc378daa952ba7f163c4a11628f55a4df523b3ef60405160405180910390a4505050565b611e4682826112b3565b611ed557611e6b8173ffffffffffffffffffffffffffffffffffffffff16601461232f565b611e798360001c602061232f565b604051602001611e8a929190613631565b6040516020818303038152906040526040517f08c379a0000000000000000000000000000000000000000000000000000000008152600401611ecc9190613756565b60405180910390fd5b5050565b611ee382826112b3565b611fb65760016007600084815260200190815260200160002060000160008373ffffffffffffffffffffffffffffffffffffffff1673ffffffffffffffffffffffffffffffffffffffff16815260200190815260200160002060006101000a81548160ff021916908315150217905550611f5b611a41565b73ffffffffffffffffffffffffffffffffffffffff168173ffffffffffffffffffffffffffffffffffffffff16837f2f8788117e7eff1d82e926ec794901d17c78024a50270940304540a733656f0d60405160405180910390a45b5050565b611fc482826112b3565b156120985760006007600084815260200190815260200160002060000160008373ffffffffffffffffffffffffffffffffffffffff1673ffffffffffffffffffffffffffffffffffffffff16815260200190815260200160002060006101000a81548160ff02191690831515021790555061203d611a41565b73ffffffffffffffffffffffffffffffffffffffff168173ffffffffffffffffffffffffffffffffffffffff16837ff6391f5c32d9c69d2a47ea670b442974b53935d1edc7fd64eb21e047a839171b60405160405180910390a45b5050565b6120b6828260405180602001604052806000815250612629565b5050565b6120c3826119d5565b612102576040517f08c379a00000000000000000000000000000000000000000000000000000000081526004016120f9906138d8565b60405180910390fd5b80600660008481526020019081526020016000209080519060200190612129929190612c13565b505050565b612139848484611be0565b61214584848484612684565b612184576040517f08c379a000000000000000000000000000000000000000000000000000000000815260040161217b90613798565b60405180910390fd5b50505050565b606060405180602001604052806000815250905090565b60606121ac826119d5565b6121eb576040517f08c379a00000000000000000000000000000000000000000000000000000000081526004016121e2906139b8565b60405180910390fd5b60006121f561218a565b905060008151116122155760405180602001604052806000815250612240565b8061221f8461281b565b60405160200161223092919061360d565b6040516020818303038152906040525b915050919050565b60007f80ac58cd000000000000000000000000000000000000000000000000000000007bffffffffffffffffffffffffffffffffffffffffffffffffffffffff1916827bffffffffffffffffffffffffffffffffffffffffffffffffffffffff1916148061231357507f5b5e139f000000000000000000000000000000000000000000000000000000007bffffffffffffffffffffffffffffffffffffffffffffffffffffffff1916827bffffffffffffffffffffffffffffffffffffffffffffffffffffffff1916145b806123235750612322826129c8565b5b9050919050565b505050565b6060600060028360026123429190613c04565b61234c9190613b7d565b67ffffffffffffffff81111561238b577f4e487b7100000000000000000000000000000000000000000000000000000000600052604160045260246000fd5b6040519080825280601f01601f1916602001820160405280156123bd5781602001600182028036833780820191505090505b5090507f30000000000000000000000000000000000000000000000000000000000000008160008151811061241b577f4e487b7100000000000000000000000000000000000000000000000000000000600052603260045260246000fd5b60200101907effffffffffffffffffffffffffffffffffffffffffffffffffffffffffffff1916908160001a9053507f7800000000000000000000000000000000000000000000000000000000000000816001815181106124a5577f4e487b7100000000000000000000000000000000000000000000000000000000600052603260045260246000fd5b60200101907effffffffffffffffffffffffffffffffffffffffffffffffffffffffffffff1916908160001a905350600060018460026124e59190613c04565b6124ef9190613b7d565b90505b60018111156125db577f3031323334353637383961626364656600000000000000000000000000000000600f861660108110612557577f4e487b7100000000000000000000000000000000000000000000000000000000600052603260045260246000fd5b1a60f81b828281518110612594577f4e487b7100000000000000000000000000000000000000000000000000000000600052603260045260246000fd5b60200101907effffffffffffffffffffffffffffffffffffffffffffffffffffffffffffff1916908160001a905350600485901c9450806125d490613d52565b90506124f2565b506000841461261f576040517f08c379a000000000000000000000000000000000000000000000000000000000815260040161261690613778565b60405180910390fd5b8091505092915050565b6126338383612a32565b6126406000848484612684565b61267f576040517f08c379a000000000000000000000000000000000000000000000000000000000815260040161267690613798565b60405180910390fd5b505050565b60006126a58473ffffffffffffffffffffffffffffffffffffffff16612c00565b1561280e578373ffffffffffffffffffffffffffffffffffffffff1663150b7a026126ce611a41565b8786866040518563ffffffff1660e01b81526004016126f094939291906136d4565b602060405180830381600087803b15801561270a57600080fd5b505af192505050801561273b57506040513d601f19601f820116820180604052508101906127389190613039565b60015b6127be573d806000811461276b576040519150601f19603f3d011682016040523d82523d6000602084013e612770565b606091505b506000815114156127b6576040517f08c379a00000000000000000000000000000000000000000000000000000000081526004016127ad90613798565b60405180910390fd5b805181602001fd5b63150b7a0260e01b7bffffffffffffffffffffffffffffffffffffffffffffffffffffffff1916817bffffffffffffffffffffffffffffffffffffffffffffffffffffffff191614915050612813565b600190505b949350505050565b60606000821415612863576040518060400160405280600181526020017f300000000000000000000000000000000000000000000000000000000000000081525090506129c3565b600082905060005b6000821461289557808061287e90613ddf565b915050600a8261288e9190613bd3565b915061286b565b60008167ffffffffffffffff8111156128d7577f4e487b7100000000000000000000000000000000000000000000000000000000600052604160045260246000fd5b6040519080825280601f01601f1916602001820160405280156129095781602001600182028036833780820191505090505b5090505b600085146129bc576001826129229190613c5e565b9150600a856129319190613e56565b603061293d9190613b7d565b60f81b818381518110612979577f4e487b7100000000000000000000000000000000000000000000000000000000600052603260045260246000fd5b60200101907effffffffffffffffffffffffffffffffffffffffffffffffffffffffffffff1916908160001a905350600a856129b59190613bd3565b945061290d565b8093505050505b919050565b60007f01ffc9a7000000000000000000000000000000000000000000000000000000007bffffffffffffffffffffffffffffffffffffffffffffffffffffffff1916827bffffffffffffffffffffffffffffffffffffffffffffffffffffffff1916149050919050565b600073ffffffffffffffffffffffffffffffffffffffff168273ffffffffffffffffffffffffffffffffffffffff161415612aa2576040517f08c379a0000000000000000000000000000000000000000000000000000000008152600401612a9990613918565b60405180910390fd5b612aab816119d5565b15612aeb576040517f08c379a0000000000000000000000000000000000000000000000000000000008152600401612ae2906137d8565b60405180910390fd5b612af76000838361232a565b6001600360008473ffffffffffffffffffffffffffffffffffffffff1673ffffffffffffffffffffffffffffffffffffffff1681526020019081526020016000206000828254612b479190613b7d565b92505081905550816002600083815260200190815260200160002060006101000a81548173ffffffffffffffffffffffffffffffffffffffff021916908373ffffffffffffffffffffffffffffffffffffffff160217905550808273ffffffffffffffffffffffffffffffffffffffff16600073ffffffffffffffffffffffffffffffffffffffff167fddf252ad1be2c89b69c2b068fc378daa952ba7f163c4a11628f55a4df523b3ef60405160405180910390a45050565b600080823b905060008111915050919050565b828054612c1f90613d7c565b90600052602060002090601f016020900481019282612c415760008555612c88565b82601f10612c5a57805160ff1916838001178555612c88565b82800160010185558215612c88579182015b82811115612c87578251825591602001919060010190612c6c565b5b509050612c959190612c99565b5090565b5b80821115612cb2576000816000905550600101612c9a565b5090565b6000612cc9612cc484613ad8565b613ab3565b905082815260208101848484011115612ce157600080fd5b612cec848285613d10565b509392505050565b6000612d07612d0284613b09565b613ab3565b905082815260208101848484011115612d1f57600080fd5b612d2a848285613d10565b509392505050565b600081359050612d4181614686565b92915050565b600081359050612d568161469d565b92915050565b600081359050612d6b816146b4565b92915050565b600081359050612d80816146cb565b92915050565b600081519050612d95816146cb565b92915050565b600082601f830112612dac57600080fd5b8135612dbc848260208601612cb6565b91505092915050565b600082601f830112612dd657600080fd5b8135612de6848260208601612cf4565b91505092915050565b600081359050612dfe816146e2565b92915050565b600060208284031215612e1657600080fd5b6000612e2484828501612d32565b91505092915050565b60008060408385031215612e4057600080fd5b6000612e4e85828601612d32565b9250506020612e5f85828601612d32565b9150509250929050565b600080600060608486031215612e7e57600080fd5b6000612e8c86828701612d32565b9350506020612e9d86828701612d32565b9250506040612eae86828701612def565b9150509250925092565b60008060008060808587031215612ece57600080fd5b6000612edc87828801612d32565b9450506020612eed87828801612d32565b9350506040612efe87828801612def565b925050606085013567ffffffffffffffff811115612f1b57600080fd5b612f2787828801612d9b565b91505092959194509250565b60008060408385031215612f4657600080fd5b6000612f5485828601612d32565b9250506020612f6585828601612d47565b9150509250929050565b60008060408385031215612f8257600080fd5b6000612f9085828601612d32565b9250506020612fa185828601612def565b9150509250929050565b600060208284031215612fbd57600080fd5b6000612fcb84828501612d5c565b91505092915050565b60008060408385031215612fe757600080fd5b6000612ff585828601612d5c565b925050602061300685828601612d32565b9150509250929050565b60006020828403121561302257600080fd5b600061303084828501612d71565b91505092915050565b60006020828403121561304b57600080fd5b600061305984828501612d86565b91505092915050565b60006020828403121561307457600080fd5b600082013567ffffffffffffffff81111561308e57600080fd5b61309a84828501612dc5565b91505092915050565b600080604083850312156130b657600080fd5b600083013567ffffffffffffffff8111156130d057600080fd5b6130dc85828601612dc5565b925050602083013567ffffffffffffffff8111156130f957600080fd5b61310585828601612dc5565b9150509250929050565b60006020828403121561312157600080fd5b600061312f84828501612def565b91505092915050565b61314181613c92565b82525050565b61315861315382613c92565b613e28565b82525050565b61316781613ca4565b82525050565b61317681613cb0565b82525050565b600061318782613b3a565b6131918185613b50565b93506131a1818560208601613d1f565b6131aa81613f43565b840191505092915050565b60006131c082613b45565b6131ca8185613b61565b93506131da818560208601613d1f565b6131e381613f43565b840191505092915050565b60006131f982613b45565b6132038185613b72565b9350613213818560208601613d1f565b80840191505092915050565b600061322c602083613b61565b915061323782613f61565b602082019050919050565b600061324f603283613b61565b915061325a82613f8a565b604082019050919050565b6000613272604083613b61565b915061327d82613fd9565b604082019050919050565b6000613295601c83613b61565b91506132a082614028565b602082019050919050565b60006132b8602483613b61565b91506132c382614051565b604082019050919050565b60006132db601983613b61565b91506132e6826140a0565b602082019050919050565b60006132fe602c83613b61565b9150613309826140c9565b604082019050919050565b6000613321602683613b61565b915061332c82614118565b604082019050919050565b6000613344603883613b61565b915061334f82614167565b604082019050919050565b6000613367602a83613b61565b9150613372826141b6565b604082019050919050565b600061338a602983613b61565b915061339582614205565b604082019050919050565b60006133ad602e83613b61565b91506133b882614254565b604082019050919050565b60006133d0602d83613b61565b91506133db826142a3565b604082019050919050565b60006133f3602083613b61565b91506133fe826142f2565b602082019050919050565b6000613416603183613b61565b91506134218261431b565b604082019050919050565b6000613439602c83613b61565b91506134448261436a565b604082019050919050565b600061345c602183613b61565b9150613467826143b9565b604082019050919050565b600061347f602983613b61565b915061348a82614408565b604082019050919050565b60006134a2602f83613b61565b91506134ad82614457565b604082019050919050565b60006134c5602183613b61565b91506134d0826144a6565b604082019050919050565b60006134e8603183613b61565b91506134f3826144f5565b604082019050919050565b600061350b601783613b72565b915061351682614544565b601782019050919050565b600061352e601a83613b61565b91506135398261456d565b602082019050919050565b6000613551601183613b72565b915061355c82614596565b601182019050919050565b6000613574600983613b61565b915061357f826145bf565b602082019050919050565b6000613597602f83613b61565b91506135a2826145e8565b604082019050919050565b60006135ba602a83613b61565b91506135c582614637565b604082019050919050565b6135d981613d06565b82525050565b6135f06135eb82613d06565b613e4c565b82525050565b600061360282846131ee565b915081905092915050565b600061361982856131ee565b915061362582846131ee565b91508190509392505050565b600061363c826134fe565b915061364882856131ee565b915061365382613544565b915061365f82846131ee565b91508190509392505050565b600061367782876135df565b60208201915061368782866135df565b6020820191506136978285613147565b6014820191506136a782846135df565b60208201915081905095945050505050565b60006020820190506136ce6000830184613138565b92915050565b60006080820190506136e96000830187613138565b6136f66020830186613138565b61370360408301856135d0565b8181036060830152613715818461317c565b905095945050505050565b6000602082019050613735600083018461315e565b92915050565b6000602082019050613750600083018461316d565b92915050565b6000602082019050818103600083015261377081846131b5565b905092915050565b600060208201905081810360008301526137918161321f565b9050919050565b600060208201905081810360008301526137b181613242565b9050919050565b600060208201905081810360008301526137d181613265565b9050919050565b600060208201905081810360008301526137f181613288565b9050919050565b60006020820190508181036000830152613811816132ab565b9050919050565b60006020820190508181036000830152613831816132ce565b9050919050565b60006020820190508181036000830152613851816132f1565b9050919050565b6000602082019050818103600083015261387181613314565b9050919050565b6000602082019050818103600083015261389181613337565b9050919050565b600060208201905081810360008301526138b18161335a565b9050919050565b600060208201905081810360008301526138d18161337d565b9050919050565b600060208201905081810360008301526138f1816133a0565b9050919050565b60006020820190508181036000830152613911816133c3565b9050919050565b60006020820190508181036000830152613931816133e6565b9050919050565b6000602082019050818103600083015261395181613409565b9050919050565b600060208201905081810360008301526139718161342c565b9050919050565b600060208201905081810360008301526139918161344f565b9050919050565b600060208201905081810360008301526139b181613472565b9050919050565b600060208201905081810360008301526139d181613495565b9050919050565b600060208201905081810360008301526139f1816134b8565b9050919050565b60006020820190508181036000830152613a11816134db565b9050919050565b60006020820190508181036000830152613a3181613521565b9050919050565b60006020820190508181036000830152613a5181613567565b9050919050565b60006020820190508181036000830152613a718161358a565b9050919050565b60006020820190508181036000830152613a91816135ad565b9050919050565b6000602082019050613aad60008301846135d0565b92915050565b6000613abd613ace565b9050613ac98282613dae565b919050565b6000604051905090565b600067ffffffffffffffff821115613af357613af2613f14565b5b613afc82613f43565b9050602081019050919050565b600067ffffffffffffffff821115613b2457613b23613f14565b5b613b2d82613f43565b9050602081019050919050565b600081519050919050565b600081519050919050565b600082825260208201905092915050565b600082825260208201905092915050565b600081905092915050565b6000613b8882613d06565b9150613b9383613d06565b9250827fffffffffffffffffffffffffffffffffffffffffffffffffffffffffffffffff03821115613bc857613bc7613e87565b5b828201905092915050565b6000613bde82613d06565b9150613be983613d06565b925082613bf957613bf8613eb6565b5b828204905092915050565b6000613c0f82613d06565b9150613c1a83613d06565b9250817fffffffffffffffffffffffffffffffffffffffffffffffffffffffffffffffff0483118215151615613c5357613c52613e87565b5b828202905092915050565b6000613c6982613d06565b9150613c7483613d06565b925082821015613c8757613c86613e87565b5b828203905092915050565b6000613c9d82613ce6565b9050919050565b60008115159050919050565b6000819050919050565b60007fffffffff0000000000000000000000000000000000000000000000000000000082169050919050565b600073ffffffffffffffffffffffffffffffffffffffff82169050919050565b6000819050919050565b82818337600083830152505050565b60005b83811015613d3d578082015181840152602081019050613d22565b83811115613d4c576000848401525b50505050565b6000613d5d82613d06565b91506000821415613d7157613d70613e87565b5b600182039050919050565b60006002820490506001821680613d9457607f821691505b60208210811415613da857613da7613ee5565b5b50919050565b613db782613f43565b810181811067ffffffffffffffff82111715613dd657613dd5613f14565b5b80604052505050565b6000613dea82613d06565b91507fffffffffffffffffffffffffffffffffffffffffffffffffffffffffffffffff821415613e1d57613e1c613e87565b5b600182019050919050565b6000613e3382613e3a565b9050919050565b6000613e4582613f54565b9050919050565b6000819050919050565b6000613e6182613d06565b9150613e6c83613d06565b925082613e7c57613e7b613eb6565b5b828206905092915050565b7f4e487b7100000000000000000000000000000000000000000000000000000000600052601160045260246000fd5b7f4e487b7100000000000000000000000000000000000000000000000000000000600052601260045260246000fd5b7f4e487b7100000000000000000000000000000000000000000000000000000000600052602260045260246000fd5b7f4e487b7100000000000000000000000000000000000000000000000000000000600052604160045260246000fd5b6000601f19601f8301169050919050565b60008160601b9050919050565b7f537472696e67733a20686578206c656e67746820696e73756666696369656e74600082015250565b7f4552433732313a207472616e7366657220746f206e6f6e20455243373231526560008201527f63656976657220696d706c656d656e7465720000000000000000000000000000602082015250565b7f546f6b656e2063616e6e6f7420636f6e7461696e20656d70747920737061636560008201527f2061742074686520626567696e6e696e67206f722061742074686520656e642e602082015250565b7f4552433732313a20746f6b656e20616c7265616479206d696e74656400000000600082015250565b7f4552433732313a207472616e7366657220746f20746865207a65726f2061646460008201527f7265737300000000000000000000000000000000000000000000000000000000602082015250565b7f4552433732313a20617070726f766520746f2063616c6c657200000000000000600082015250565b7f4552433732313a206f70657261746f7220717565727920666f72206e6f6e657860008201527f697374656e7420746f6b656e0000000000000000000000000000000000000000602082015250565b7f4e6f2045524337323120746f6b656e732068617665206265656e206d696e746560008201527f64207965742e0000000000000000000000000000000000000000000000000000602082015250565b7f4552433732313a20617070726f76652063616c6c6572206973206e6f74206f7760008201527f6e6572206e6f7220617070726f76656420666f7220616c6c0000000000000000602082015250565b7f4552433732313a2062616c616e636520717565727920666f7220746865207a6560008201527f726f206164647265737300000000000000000000000000000000000000000000602082015250565b7f4552433732313a206f776e657220717565727920666f72206e6f6e657869737460008201527f656e7420746f6b656e0000000000000000000000000000000000000000000000602082015250565b7f45524337323155524953746f726167653a2055524920736574206f66206e6f6e60008201527f6578697374656e7420746f6b656e000000000000000000000000000000000000602082015250565b7f6c6f747465727920666565206d757374206265206c657373207468616e20746860008201527f65206d696e74696e672066656500000000000000000000000000000000000000602082015250565b7f4552433732313a206d696e7420746f20746865207a65726f2061646472657373600082015250565b7f45524337323155524953746f726167653a2055524920717565727920666f722060008201527f6e6f6e6578697374656e7420746f6b656e000000000000000000000000000000602082015250565b7f4552433732313a20617070726f76656420717565727920666f72206e6f6e657860008201527f697374656e7420746f6b656e0000000000000000000000000000000000000000602082015250565b7f416d6f756e74206d7573742062652067726561746572207468616e207a65726f60008201527f2100000000000000000000000000000000000000000000000000000000000000602082015250565b7f4552433732313a207472616e73666572206f6620746f6b656e2074686174206960008201527f73206e6f74206f776e0000000000000000000000000000000000000000000000602082015250565b7f4552433732314d657461646174613a2055524920717565727920666f72206e6f60008201527f6e6578697374656e7420746f6b656e0000000000000000000000000000000000602082015250565b7f4552433732313a20617070726f76616c20746f2063757272656e74206f776e6560008201527f7200000000000000000000000000000000000000000000000000000000000000602082015250565b7f4552433732313a207472616e736665722063616c6c6572206973206e6f74206f60008201527f776e6572206e6f7220617070726f766564000000000000000000000000000000602082015250565b7f416363657373436f6e74726f6c3a206163636f756e7420000000000000000000600082015250565b7f4e65656420746f2073656e642061206d696e74696e6720666565000000000000600082015250565b7f206973206d697373696e6720726f6c6520000000000000000000000000000000600082015250565b7f4e6f742061646d696e0000000000000000000000000000000000000000000000600082015250565b7f416363657373436f6e74726f6c3a2063616e206f6e6c792072656e6f756e636560008201527f20726f6c657320666f722073656c660000000000000000000000000000000000602082015250565b7f546f6b656e206c656e677468206973207a65726f206f7220677265617465722060008201527f7468616e20343239352e00000000000000000000000000000000000000000000602082015250565b61468f81613c92565b811461469a57600080fd5b50565b6146a681613ca4565b81146146b157600080fd5b50565b6146bd81613cb0565b81146146c857600080fd5b50565b6146d481613cba565b81146146df57600080fd5b50565b6146eb81613d06565b81146146f657600080fd5b5056fea26469706673582212207d027a366d43d7a87d80c0f18b97468d03702676210f5a7f4137aaebdce436e164736f6c63430008040033",
  "immutableReferences": {},
  "source": "// SPDX-License-Identifier: AGPL-3.0-or-later\npragma solidity ^0.8.0;\n\nimport \"@openzeppelin/contracts/token/ERC721/extensions/ERC721URIStorage.sol\";\nimport \"@openzeppelin/contracts/access/AccessControl.sol\";\n\ncontract MondrainERC721 is ERC721URIStorage, AccessControl {\n  \n  modifier onlyAdmin {\n    require(hasRole(DEFAULT_ADMIN_ROLE, msg.sender), \"Not admin\");\n    _;\n  }\n\n  //send minting fee to this address\n  address payable private _owner;\n  address payable private _lotteryRunner;\n  //what people pay on basis \n  uint mintingFee = 0.05 ether;\n  uint lotteryFee = 0.04 ether;\n  //list minted tokens  \n  string[] public tokens;\n  //token map\n  mapping(string => uint) _tokenId;\n  // counter\n  uint private counter;\n\n  constructor(address lotteryRunner) public ERC721(\"mondrain.xyz\", \"QUADRO\") {\n    //_setBaseURI(\"https://ipfs.infura.io/ipfs/\");\n    _owner = payable(msg.sender);\n    _lotteryRunner = payable(lotteryRunner);\n    _setupRole(DEFAULT_ADMIN_ROLE, msg.sender);\n  }\n  \n  function supportsInterface(bytes4 interfaceId) public view virtual override(ERC721, AccessControl) returns (bool) {\n    return super.supportsInterface(interfaceId);\n  }\n  \n  function mint(string memory _token, string memory _tokenURI) public payable {\n    require(msg.value == mintingFee, \"Need to send a minting fee\");\n    bytes memory b = bytes(_token);\n    require(testStrLength(_token), \"Token length is zero or greater than 4295.\");\n    require(testStrNonEmptyFirstLastChar(_token), \"Token cannot contain empty space at the beginning or at the end.\");\n\n    uint _id = uint(keccak256(b));\n    _safeMint(msg.sender, _id);\n    _setTokenURI(_id, _tokenURI);\n    _lotteryRunner.transfer(lotteryFee);\n    _owner.transfer(msg.value - lotteryFee);\n    tokens.push(_token);\n    _tokenId[_token] = _id;\n  }\n\n  function setRandomSeed(uint seed) public onlyAdmin {\n     counter = seed;\n  }\n\n  //TO DO set mintingFee proportionally to amount of token owned\n  function setMintingFee(uint amount) public onlyAdmin {\n      require(amount > 0, \"Amount must be greater than zero!\");\n      mintingFee = amount;\n  }\n\n  function getMintingFee() public view returns(uint) {\n    return mintingFee;\n  }\n\n  function setLotteryFee(uint amount) public onlyAdmin {\n    require(mintingFee - amount > 0, \"lottery fee must be less than the minting fee\");\n    lotteryFee = amount;\n  }\n\n  function getLotteryFee() public view returns(uint) {\n     return lotteryFee;\n  }\n\n  //choose random tokens\n  function getRandomTokenId() public returns(uint) {\n    require(tokens.length > 0, \"No ERC721 tokens have been minted yet.\");\n    uint randomNumber = uint(keccak256(abi.encodePacked(block.difficulty, block.timestamp, msg.sender, counter))) % tokens.length;\n    counter++;\n    string memory _token = tokens[randomNumber]; \n    return _tokenId[_token];\n  }\n\n  function totalSupply() public view returns(uint) {\n    return tokens.length;\n  }\n\n  function getTokenId(string memory _token) public view returns (uint) {\n    return _tokenId[_token];\n  }\n\n  function testStrLength(string memory str) public pure returns (bool) {\n    bytes memory b = bytes(str); \n    if(b.length == 0 || b.length > 4295) return false; //max alphanumeric qrcode chars 4296-1\n    return true;\n  }\n\n  function testStrNonEmptyFirstLastChar(string memory str) public pure returns (bool) {\n    bytes memory b = bytes(str);\n    if(b[0] == 0x20 || b[b.length - 1] == 0x20 ) return false; //test first or last char to be non-empty\n    return true;\n  }\n\n}\n\n",
  "sourcePath": "/Users/alessandrobartalucci/nft2/mondrian/contracts/MondrainERC721.sol",
  "compiler": {
    "name": "solc",
    "version": "0.8.4+commit.c7e474f2.Emscripten.clang"
  },
  "schemaVersion": "3.3.4",
  "updatedAt": "2021-05-28T21:42:17.120Z",
  "networkType": "ethereum",
  "devdoc": {
    "kind": "dev",
    "methods": {
      "approve(address,uint256)": {
        "details": "See {IERC721-approve}."
      },
      "balanceOf(address)": {
        "details": "See {IERC721-balanceOf}."
      },
      "getApproved(uint256)": {
        "details": "See {IERC721-getApproved}."
      },
      "getRoleAdmin(bytes32)": {
        "details": "Returns the admin role that controls `role`. See {grantRole} and {revokeRole}. To change a role's admin, use {_setRoleAdmin}."
      },
      "grantRole(bytes32,address)": {
        "details": "Grants `role` to `account`. If `account` had not been already granted `role`, emits a {RoleGranted} event. Requirements: - the caller must have ``role``'s admin role."
      },
      "hasRole(bytes32,address)": {
        "details": "Returns `true` if `account` has been granted `role`."
      },
      "isApprovedForAll(address,address)": {
        "details": "See {IERC721-isApprovedForAll}."
      },
      "name()": {
        "details": "See {IERC721Metadata-name}."
      },
      "ownerOf(uint256)": {
        "details": "See {IERC721-ownerOf}."
      },
      "renounceRole(bytes32,address)": {
        "details": "Revokes `role` from the calling account. Roles are often managed via {grantRole} and {revokeRole}: this function's purpose is to provide a mechanism for accounts to lose their privileges if they are compromised (such as when a trusted device is misplaced). If the calling account had been granted `role`, emits a {RoleRevoked} event. Requirements: - the caller must be `account`."
      },
      "revokeRole(bytes32,address)": {
        "details": "Revokes `role` from `account`. If `account` had been granted `role`, emits a {RoleRevoked} event. Requirements: - the caller must have ``role``'s admin role."
      },
      "safeTransferFrom(address,address,uint256)": {
        "details": "See {IERC721-safeTransferFrom}."
      },
      "safeTransferFrom(address,address,uint256,bytes)": {
        "details": "See {IERC721-safeTransferFrom}."
      },
      "setApprovalForAll(address,bool)": {
        "details": "See {IERC721-setApprovalForAll}."
      },
      "symbol()": {
        "details": "See {IERC721Metadata-symbol}."
      },
      "tokenURI(uint256)": {
        "details": "See {IERC721Metadata-tokenURI}."
      },
      "transferFrom(address,address,uint256)": {
        "details": "See {IERC721-transferFrom}."
      }
    },
    "version": 1
  },
  "userdoc": {
    "kind": "user",
    "methods": {},
    "version": 1
  }
}