{
  "contractName": "MondrainLottery",
  "abi": [
    {
      "inputs": [
        {
          "internalType": "address",
          "name": "mondrainERC721Address",
          "type": "address"
        },
        {
          "internalType": "address",
          "name": "mondrainERC20Address",
          "type": "address"
        }
      ],
      "stateMutability": "nonpayable",
      "type": "constructor"
    },
    {
      "anonymous": false,
      "inputs": [
        {
          "indexed": false,
          "internalType": "address",
          "name": "account",
          "type": "address"
        }
      ],
      "name": "Paused",
      "type": "event"
    },
    {
      "anonymous": false,
      "inputs": [
        {
          "indexed": true,
          "internalType": "bytes32",
          "name": "role",
          "type": "bytes32"
        },
        {
          "indexed": true,
          "internalType": "bytes32",
          "name": "previousAdminRole",
          "type": "bytes32"
        },
        {
          "indexed": true,
          "internalType": "bytes32",
          "name": "newAdminRole",
          "type": "bytes32"
        }
      ],
      "name": "RoleAdminChanged",
      "type": "event"
    },
    {
      "anonymous": false,
      "inputs": [
        {
          "indexed": true,
          "internalType": "bytes32",
          "name": "role",
          "type": "bytes32"
        },
        {
          "indexed": true,
          "internalType": "address",
          "name": "account",
          "type": "address"
        },
        {
          "indexed": true,
          "internalType": "address",
          "name": "sender",
          "type": "address"
        }
      ],
      "name": "RoleGranted",
      "type": "event"
    },
    {
      "anonymous": false,
      "inputs": [
        {
          "indexed": true,
          "internalType": "bytes32",
          "name": "role",
          "type": "bytes32"
        },
        {
          "indexed": true,
          "internalType": "address",
          "name": "account",
          "type": "address"
        },
        {
          "indexed": true,
          "internalType": "address",
          "name": "sender",
          "type": "address"
        }
      ],
      "name": "RoleRevoked",
      "type": "event"
    },
    {
      "anonymous": false,
      "inputs": [
        {
          "indexed": false,
          "internalType": "address",
          "name": "account",
          "type": "address"
        }
      ],
      "name": "Unpaused",
      "type": "event"
    },
    {
      "anonymous": false,
      "inputs": [
        {
          "indexed": false,
          "internalType": "address",
          "name": "winnerAddress",
          "type": "address"
        },
        {
          "indexed": false,
          "internalType": "uint256",
          "name": "tokenAmount",
          "type": "uint256"
        },
        {
          "indexed": false,
          "internalType": "uint256",
          "name": "timestamp",
          "type": "uint256"
        }
      ],
      "name": "WinnerRewarded",
      "type": "event"
    },
    {
      "inputs": [],
      "name": "DEFAULT_ADMIN_ROLE",
      "outputs": [
        {
          "internalType": "bytes32",
          "name": "",
          "type": "bytes32"
        }
      ],
      "stateMutability": "view",
      "type": "function",
      "constant": true
    },
    {
      "inputs": [],
      "name": "LOTTERY_ADMIN_ROLE",
      "outputs": [
        {
          "internalType": "bytes32",
          "name": "",
          "type": "bytes32"
        }
      ],
      "stateMutability": "view",
      "type": "function",
      "constant": true
    },
    {
      "inputs": [
        {
          "internalType": "bytes32",
          "name": "role",
          "type": "bytes32"
        }
      ],
      "name": "getRoleAdmin",
      "outputs": [
        {
          "internalType": "bytes32",
          "name": "",
          "type": "bytes32"
        }
      ],
      "stateMutability": "view",
      "type": "function",
      "constant": true
    },
    {
      "inputs": [
        {
          "internalType": "bytes32",
          "name": "role",
          "type": "bytes32"
        },
        {
          "internalType": "address",
          "name": "account",
          "type": "address"
        }
      ],
      "name": "grantRole",
      "outputs": [],
      "stateMutability": "nonpayable",
      "type": "function"
    },
    {
      "inputs": [
        {
          "internalType": "bytes32",
          "name": "role",
          "type": "bytes32"
        },
        {
          "internalType": "address",
          "name": "account",
          "type": "address"
        }
      ],
      "name": "hasRole",
      "outputs": [
        {
          "internalType": "bool",
          "name": "",
          "type": "bool"
        }
      ],
      "stateMutability": "view",
      "type": "function",
      "constant": true
    },
    {
      "inputs": [],
      "name": "paused",
      "outputs": [
        {
          "internalType": "bool",
          "name": "",
          "type": "bool"
        }
      ],
      "stateMutability": "view",
      "type": "function",
      "constant": true
    },
    {
      "inputs": [
        {
          "internalType": "bytes32",
          "name": "role",
          "type": "bytes32"
        },
        {
          "internalType": "address",
          "name": "account",
          "type": "address"
        }
      ],
      "name": "renounceRole",
      "outputs": [],
      "stateMutability": "nonpayable",
      "type": "function"
    },
    {
      "inputs": [
        {
          "internalType": "bytes32",
          "name": "role",
          "type": "bytes32"
        },
        {
          "internalType": "address",
          "name": "account",
          "type": "address"
        }
      ],
      "name": "revokeRole",
      "outputs": [],
      "stateMutability": "nonpayable",
      "type": "function"
    },
    {
      "inputs": [
        {
          "internalType": "bytes4",
          "name": "interfaceId",
          "type": "bytes4"
        }
      ],
      "name": "supportsInterface",
      "outputs": [
        {
          "internalType": "bool",
          "name": "",
          "type": "bool"
        }
      ],
      "stateMutability": "view",
      "type": "function",
      "constant": true
    },
    {
      "inputs": [],
      "name": "rewardWinner",
      "outputs": [],
      "stateMutability": "nonpayable",
      "type": "function"
    },
    {
      "inputs": [
        {
          "internalType": "uint256",
          "name": "amount",
          "type": "uint256"
        }
      ],
      "name": "setRewardAmount",
      "outputs": [],
      "stateMutability": "nonpayable",
      "type": "function"
    },
    {
      "inputs": [],
      "name": "getRewardAmount",
      "outputs": [
        {
          "internalType": "uint256",
          "name": "",
          "type": "uint256"
        }
      ],
      "stateMutability": "view",
      "type": "function",
      "constant": true
    },
    {
      "inputs": [
        {
          "internalType": "address",
          "name": "newLotteryAdmin",
          "type": "address"
        }
      ],
      "name": "grantLotteryAdminRole",
      "outputs": [],
      "stateMutability": "nonpayable",
      "type": "function"
    },
    {
      "inputs": [
        {
          "internalType": "address",
          "name": "LotteryAdmin",
          "type": "address"
        }
      ],
      "name": "revokeLotteryAdminRole",
      "outputs": [],
      "stateMutability": "nonpayable",
      "type": "function"
    },
    {
      "inputs": [],
      "name": "pauseLottery",
      "outputs": [],
      "stateMutability": "nonpayable",
      "type": "function"
    },
    {
      "inputs": [],
      "name": "unpauseLottery",
      "outputs": [],
      "stateMutability": "nonpayable",
      "type": "function"
    }
  ],
  "bytecode": "0x60806040526103e86003553480156200001757600080fd5b50604051620026f5380380620026f583398181016040528101906200003d9190620006f3565b6000600160006101000a81548160ff021916908315150217905550816001806101000a81548173ffffffffffffffffffffffffffffffffffffffff021916908373ffffffffffffffffffffffffffffffffffffffff16021790555080600260006101000a81548173ffffffffffffffffffffffffffffffffffffffff021916908373ffffffffffffffffffffffffffffffffffffffff160217905550620000ee6000801b336200012860201b60201c565b620001207fd053bdac1126c96d2b4df55c1c08a748262e113c1b070772b24e29cb3809ad63336200013e60201b60201c565b505062000b06565b6200013a82826200018760201b60201c565b5050565b6200014f826200027860201b60201c565b6200017081620001646200029760201b60201c565b6200029f60201b60201c565b6200018283836200018760201b60201c565b505050565b6200019982826200036360201b60201c565b6200027457600160008084815260200190815260200160002060000160008373ffffffffffffffffffffffffffffffffffffffff1673ffffffffffffffffffffffffffffffffffffffff16815260200190815260200160002060006101000a81548160ff021916908315150217905550620002196200029760201b60201c565b73ffffffffffffffffffffffffffffffffffffffff168173ffffffffffffffffffffffffffffffffffffffff16837f2f8788117e7eff1d82e926ec794901d17c78024a50270940304540a733656f0d60405160405180910390a45b5050565b6000806000838152602001908152602001600020600101549050919050565b600033905090565b620002b182826200036360201b60201c565b6200035f57620002e48173ffffffffffffffffffffffffffffffffffffffff166014620003cd60201b6200096e1760201c565b620002ff8360001c6020620003cd60201b6200096e1760201c565b6040516020016200031292919062000821565b6040516020818303038152906040526040517f08c379a000000000000000000000000000000000000000000000000000000000815260040162000356919062000863565b60405180910390fd5b5050565b600080600084815260200190815260200160002060000160008373ffffffffffffffffffffffffffffffffffffffff1673ffffffffffffffffffffffffffffffffffffffff16815260200190815260200160002060009054906101000a900460ff16905092915050565b606060006002836002620003e291906200092d565b620003ee9190620008d0565b67ffffffffffffffff8111156200042e577f4e487b7100000000000000000000000000000000000000000000000000000000600052604160045260246000fd5b6040519080825280601f01601f191660200182016040528015620004615781602001600182028036833780820191505090505b5090507f300000000000000000000000000000000000000000000000000000000000000081600081518110620004c0577f4e487b7100000000000000000000000000000000000000000000000000000000600052603260045260246000fd5b60200101907effffffffffffffffffffffffffffffffffffffffffffffffffffffffffffff1916908160001a9053507f7800000000000000000000000000000000000000000000000000000000000000816001815181106200054b577f4e487b7100000000000000000000000000000000000000000000000000000000600052603260045260246000fd5b60200101907effffffffffffffffffffffffffffffffffffffffffffffffffffffffffffff1916908160001a905350600060018460026200058d91906200092d565b620005999190620008d0565b90505b60018111156200068b577f3031323334353637383961626364656600000000000000000000000000000000600f86166010811062000603577f4e487b7100000000000000000000000000000000000000000000000000000000600052603260045260246000fd5b1a60f81b82828151811062000641577f4e487b7100000000000000000000000000000000000000000000000000000000600052603260045260246000fd5b60200101907effffffffffffffffffffffffffffffffffffffffffffffffffffffffffffff1916908160001a905350600485901c945080620006839062000a02565b90506200059c565b5060008414620006d2576040517f08c379a0000000000000000000000000000000000000000000000000000000008152600401620006c99062000887565b60405180910390fd5b8091505092915050565b600081519050620006ed8162000aec565b92915050565b600080604083850312156200070757600080fd5b60006200071785828601620006dc565b92505060206200072a85828601620006dc565b9150509250929050565b60006200074182620008a9565b6200074d8185620008b4565b93506200075f818560208601620009cc565b6200076a8162000a60565b840191505092915050565b60006200078282620008a9565b6200078e8185620008c5565b9350620007a0818560208601620009cc565b80840191505092915050565b6000620007bb602083620008b4565b9150620007c88262000a71565b602082019050919050565b6000620007e2601783620008c5565b9150620007ef8262000a9a565b601782019050919050565b600062000809601183620008c5565b9150620008168262000ac3565b601182019050919050565b60006200082e82620007d3565b91506200083c828562000775565b91506200084982620007fa565b915062000857828462000775565b91508190509392505050565b600060208201905081810360008301526200087f818462000734565b905092915050565b60006020820190508181036000830152620008a281620007ac565b9050919050565b600081519050919050565b600082825260208201905092915050565b600081905092915050565b6000620008dd82620009c2565b9150620008ea83620009c2565b9250827fffffffffffffffffffffffffffffffffffffffffffffffffffffffffffffffff0382111562000922576200092162000a31565b5b828201905092915050565b60006200093a82620009c2565b91506200094783620009c2565b9250817fffffffffffffffffffffffffffffffffffffffffffffffffffffffffffffffff048311821515161562000983576200098262000a31565b5b828202905092915050565b60006200099b82620009a2565b9050919050565b600073ffffffffffffffffffffffffffffffffffffffff82169050919050565b6000819050919050565b60005b83811015620009ec578082015181840152602081019050620009cf565b83811115620009fc576000848401525b50505050565b600062000a0f82620009c2565b9150600082141562000a265762000a2562000a31565b5b600182039050919050565b7f4e487b7100000000000000000000000000000000000000000000000000000000600052601160045260246000fd5b6000601f19601f8301169050919050565b7f537472696e67733a20686578206c656e67746820696e73756666696369656e74600082015250565b7f416363657373436f6e74726f6c3a206163636f756e7420000000000000000000600082015250565b7f206973206d697373696e6720726f6c6520000000000000000000000000000000600082015250565b62000af7816200098e565b811462000b0357600080fd5b50565b611bdf8062000b166000396000f3fe608060405234801561001057600080fd5b50600436106101005760003560e01c806391d1485411610097578063ab73e14411610066578063ab73e14414610299578063cf765ffa146102a3578063d547741f146102ad578063febdb9b8146102c957610100565b806391d14854146102135780639674e62e14610243578063a217fddf1461025f578063a8a65a781461027d57610100565b80632d68714e116100d35780632d68714e1461019f5780632f2ff15d146101bd57806336568abe146101d95780635c975abb146101f557610100565b806301ffc9a71461010557806309a69f57146101355780631121489d14610153578063248a9ca31461016f575b600080fd5b61011f600480360381019061011a9190611349565b6102d3565b60405161012c919061165a565b60405180910390f35b61013d61034d565b60405161014a9190611792565b60405180910390f35b61016d60048036038101906101689190611269565b610357565b005b610189600480360381019061018491906112e4565b6103d0565b6040516101969190611675565b60405180910390f35b6101a76103ef565b6040516101b49190611675565b60405180910390f35b6101d760048036038101906101d2919061130d565b610413565b005b6101f360048036038101906101ee919061130d565b61043c565b005b6101fd6104bf565b60405161020a919061165a565b60405180910390f35b61022d6004803603810190610228919061130d565b6104d6565b60405161023a919061165a565b60405180910390f35b61025d60048036038101906102589190611269565b610540565b005b6102676105b9565b6040516102749190611675565b60405180910390f35b61029760048036038101906102929190611372565b6105c0565b005b6102a1610659565b005b6102ab6106af565b005b6102c760048036038101906102c2919061130d565b610705565b005b6102d161072e565b005b60007f7965db0b000000000000000000000000000000000000000000000000000000007bffffffffffffffffffffffffffffffffffffffffffffffffffffffff1916827bffffffffffffffffffffffffffffffffffffffffffffffffffffffff19161480610346575061034582610c68565b5b9050919050565b6000600354905090565b6103646000801b336104d6565b6103a3576040517f08c379a000000000000000000000000000000000000000000000000000000000815260040161039a90611752565b60405180910390fd5b6103cd7fd053bdac1126c96d2b4df55c1c08a748262e113c1b070772b24e29cb3809ad6382610413565b50565b6000806000838152602001908152602001600020600101549050919050565b7fd053bdac1126c96d2b4df55c1c08a748262e113c1b070772b24e29cb3809ad6381565b61041c826103d0565b61042d81610428610cd2565b610cda565b6104378383610d77565b505050565b610444610cd2565b73ffffffffffffffffffffffffffffffffffffffff168173ffffffffffffffffffffffffffffffffffffffff16146104b1576040517f08c379a00000000000000000000000000000000000000000000000000000000081526004016104a890611772565b60405180910390fd5b6104bb8282610e57565b5050565b6000600160009054906101000a900460ff16905090565b600080600084815260200190815260200160002060000160008373ffffffffffffffffffffffffffffffffffffffff1673ffffffffffffffffffffffffffffffffffffffff16815260200190815260200160002060009054906101000a900460ff16905092915050565b61054d6000801b336104d6565b61058c576040517f08c379a000000000000000000000000000000000000000000000000000000000815260040161058390611752565b60405180910390fd5b6105b67fd053bdac1126c96d2b4df55c1c08a748262e113c1b070772b24e29cb3809ad6382610705565b50565b6000801b81565b6105cd6000801b336104d6565b61060c576040517f08c379a000000000000000000000000000000000000000000000000000000000815260040161060390611752565b60405180910390fd5b6000811161064f576040517f08c379a0000000000000000000000000000000000000000000000000000000008152600401610646906116f2565b60405180910390fd5b8060038190555050565b6106666000801b336104d6565b6106a5576040517f08c379a000000000000000000000000000000000000000000000000000000000815260040161069c90611752565b60405180910390fd5b6106ad610f38565b565b6106bc6000801b336104d6565b6106fb576040517f08c379a00000000000000000000000000000000000000000000000000000000081526004016106f290611752565b60405180910390fd5b610703610fda565b565b61070e826103d0565b61071f8161071a610cd2565b610cda565b6107298383610e57565b505050565b6107587fd053bdac1126c96d2b4df55c1c08a748262e113c1b070772b24e29cb3809ad63336104d6565b610797576040517f08c379a000000000000000000000000000000000000000000000000000000000815260040161078e90611712565b60405180910390fd5b61079f6104bf565b156107df576040517f08c379a00000000000000000000000000000000000000000000000000000000081526004016107d690611732565b60405180910390fd5b60006107e961107c565b9050600260009054906101000a900473ffffffffffffffffffffffffffffffffffffffff1673ffffffffffffffffffffffffffffffffffffffff166340c10f19306003546040518363ffffffff1660e01b815260040161084a9291906115fa565b600060405180830381600087803b15801561086457600080fd5b505af1158015610878573d6000803e3d6000fd5b50505050600260009054906101000a900473ffffffffffffffffffffffffffffffffffffffff1673ffffffffffffffffffffffffffffffffffffffff1663a9059cbb826003546040518363ffffffff1660e01b81526004016108db9291906115fa565b602060405180830381600087803b1580156108f557600080fd5b505af1158015610909573d6000803e3d6000fd5b505050506040513d601f19601f8201168201806040525081019061092d91906112bb565b507f72aea2f12bea68dbd813a2a88098a2d332d531282a9304132df9a2f9d343e4b1816003544260405161096393929190611623565b60405180910390a150565b606060006002836002610981919061182a565b61098b91906117d4565b67ffffffffffffffff8111156109ca577f4e487b7100000000000000000000000000000000000000000000000000000000600052604160045260246000fd5b6040519080825280601f01601f1916602001820160405280156109fc5781602001600182028036833780820191505090505b5090507f300000000000000000000000000000000000000000000000000000000000000081600081518110610a5a577f4e487b7100000000000000000000000000000000000000000000000000000000600052603260045260246000fd5b60200101907effffffffffffffffffffffffffffffffffffffffffffffffffffffffffffff1916908160001a9053507f780000000000000000000000000000000000000000000000000000000000000081600181518110610ae4577f4e487b7100000000000000000000000000000000000000000000000000000000600052603260045260246000fd5b60200101907effffffffffffffffffffffffffffffffffffffffffffffffffffffffffffff1916908160001a90535060006001846002610b24919061182a565b610b2e91906117d4565b90505b6001811115610c1a577f3031323334353637383961626364656600000000000000000000000000000000600f861660108110610b96577f4e487b7100000000000000000000000000000000000000000000000000000000600052603260045260246000fd5b1a60f81b828281518110610bd3577f4e487b7100000000000000000000000000000000000000000000000000000000600052603260045260246000fd5b60200101907effffffffffffffffffffffffffffffffffffffffffffffffffffffffffffff1916908160001a905350600485901c945080610c1390611935565b9050610b31565b5060008414610c5e576040517f08c379a0000000000000000000000000000000000000000000000000000000008152600401610c55906116b2565b60405180910390fd5b8091505092915050565b60007f01ffc9a7000000000000000000000000000000000000000000000000000000007bffffffffffffffffffffffffffffffffffffffffffffffffffffffff1916827bffffffffffffffffffffffffffffffffffffffffffffffffffffffff1916149050919050565b600033905090565b610ce482826104d6565b610d7357610d098173ffffffffffffffffffffffffffffffffffffffff16601461096e565b610d178360001c602061096e565b604051602001610d289291906115a5565b6040516020818303038152906040526040517f08c379a0000000000000000000000000000000000000000000000000000000008152600401610d6a9190611690565b60405180910390fd5b5050565b610d8182826104d6565b610e5357600160008084815260200190815260200160002060000160008373ffffffffffffffffffffffffffffffffffffffff1673ffffffffffffffffffffffffffffffffffffffff16815260200190815260200160002060006101000a81548160ff021916908315150217905550610df8610cd2565b73ffffffffffffffffffffffffffffffffffffffff168173ffffffffffffffffffffffffffffffffffffffff16837f2f8788117e7eff1d82e926ec794901d17c78024a50270940304540a733656f0d60405160405180910390a45b5050565b610e6182826104d6565b15610f3457600080600084815260200190815260200160002060000160008373ffffffffffffffffffffffffffffffffffffffff1673ffffffffffffffffffffffffffffffffffffffff16815260200190815260200160002060006101000a81548160ff021916908315150217905550610ed9610cd2565b73ffffffffffffffffffffffffffffffffffffffff168173ffffffffffffffffffffffffffffffffffffffff16837ff6391f5c32d9c69d2a47ea670b442974b53935d1edc7fd64eb21e047a839171b60405160405180910390a45b5050565b610f406104bf565b15610f80576040517f08c379a0000000000000000000000000000000000000000000000000000000008152600401610f7790611732565b60405180910390fd5b60018060006101000a81548160ff0219169083151502179055507f62e78cea01bee320cd4e420270b5ea74000d11b0c9f74754ebdbfc544b05a258610fc3610cd2565b604051610fd091906115df565b60405180910390a1565b610fe26104bf565b611021576040517f08c379a0000000000000000000000000000000000000000000000000000000008152600401611018906116d2565b60405180910390fd5b6000600160006101000a81548160ff0219169083151502179055507f5db9ee0a495bf2e6ff9c91a7834c1ba4fdd244a5e8aa4e537bd38aeae4b073aa611065610cd2565b60405161107291906115df565b60405180910390a1565b60008060018054906101000a900473ffffffffffffffffffffffffffffffffffffffff1673ffffffffffffffffffffffffffffffffffffffff1663d5fc48046040518163ffffffff1660e01b8152600401602060405180830381600087803b1580156110e757600080fd5b505af11580156110fb573d6000803e3d6000fd5b505050506040513d601f19601f8201168201806040525081019061111f919061139b565b9050600060018054906101000a900473ffffffffffffffffffffffffffffffffffffffff1673ffffffffffffffffffffffffffffffffffffffff16636352211e836040518263ffffffff1660e01b815260040161117c9190611792565b60206040518083038186803b15801561119457600080fd5b505afa1580156111a8573d6000803e3d6000fd5b505050506040513d601f19601f820116820180604052508101906111cc9190611292565b9050809250505090565b6000813590506111e581611b36565b92915050565b6000815190506111fa81611b36565b92915050565b60008151905061120f81611b4d565b92915050565b60008135905061122481611b64565b92915050565b60008135905061123981611b7b565b92915050565b60008135905061124e81611b92565b92915050565b60008151905061126381611b92565b92915050565b60006020828403121561127b57600080fd5b6000611289848285016111d6565b91505092915050565b6000602082840312156112a457600080fd5b60006112b2848285016111eb565b91505092915050565b6000602082840312156112cd57600080fd5b60006112db84828501611200565b91505092915050565b6000602082840312156112f657600080fd5b600061130484828501611215565b91505092915050565b6000806040838503121561132057600080fd5b600061132e85828601611215565b925050602061133f858286016111d6565b9150509250929050565b60006020828403121561135b57600080fd5b60006113698482850161122a565b91505092915050565b60006020828403121561138457600080fd5b60006113928482850161123f565b91505092915050565b6000602082840312156113ad57600080fd5b60006113bb84828501611254565b91505092915050565b6113cd81611884565b82525050565b6113dc81611896565b82525050565b6113eb816118a2565b82525050565b60006113fc826117ad565b61140681856117b8565b9350611416818560208601611902565b61141f8161198e565b840191505092915050565b6000611435826117ad565b61143f81856117c9565b935061144f818560208601611902565b80840191505092915050565b60006114686020836117b8565b91506114738261199f565b602082019050919050565b600061148b6014836117b8565b9150611496826119c8565b602082019050919050565b60006114ae601e836117b8565b91506114b9826119f1565b602082019050919050565b60006114d16013836117b8565b91506114dc82611a1a565b602082019050919050565b60006114f46010836117b8565b91506114ff82611a43565b602082019050919050565b60006115176017836117c9565b915061152282611a6c565b601782019050919050565b600061153a6011836117c9565b915061154582611a95565b601182019050919050565b600061155d6009836117b8565b915061156882611abe565b602082019050919050565b6000611580602f836117b8565b915061158b82611ae7565b604082019050919050565b61159f816118f8565b82525050565b60006115b08261150a565b91506115bc828561142a565b91506115c78261152d565b91506115d3828461142a565b91508190509392505050565b60006020820190506115f460008301846113c4565b92915050565b600060408201905061160f60008301856113c4565b61161c6020830184611596565b9392505050565b600060608201905061163860008301866113c4565b6116456020830185611596565b6116526040830184611596565b949350505050565b600060208201905061166f60008301846113d3565b92915050565b600060208201905061168a60008301846113e2565b92915050565b600060208201905081810360008301526116aa81846113f1565b905092915050565b600060208201905081810360008301526116cb8161145b565b9050919050565b600060208201905081810360008301526116eb8161147e565b9050919050565b6000602082019050818103600083015261170b816114a1565b9050919050565b6000602082019050818103600083015261172b816114c4565b9050919050565b6000602082019050818103600083015261174b816114e7565b9050919050565b6000602082019050818103600083015261176b81611550565b9050919050565b6000602082019050818103600083015261178b81611573565b9050919050565b60006020820190506117a76000830184611596565b92915050565b600081519050919050565b600082825260208201905092915050565b600081905092915050565b60006117df826118f8565b91506117ea836118f8565b9250827fffffffffffffffffffffffffffffffffffffffffffffffffffffffffffffffff0382111561181f5761181e61195f565b5b828201905092915050565b6000611835826118f8565b9150611840836118f8565b9250817fffffffffffffffffffffffffffffffffffffffffffffffffffffffffffffffff04831182151516156118795761187861195f565b5b828202905092915050565b600061188f826118d8565b9050919050565b60008115159050919050565b6000819050919050565b60007fffffffff0000000000000000000000000000000000000000000000000000000082169050919050565b600073ffffffffffffffffffffffffffffffffffffffff82169050919050565b6000819050919050565b60005b83811015611920578082015181840152602081019050611905565b8381111561192f576000848401525b50505050565b6000611940826118f8565b915060008214156119545761195361195f565b5b600182039050919050565b7f4e487b7100000000000000000000000000000000000000000000000000000000600052601160045260246000fd5b6000601f19601f8301169050919050565b7f537472696e67733a20686578206c656e67746820696e73756666696369656e74600082015250565b7f5061757361626c653a206e6f7420706175736564000000000000000000000000600082015250565b7f416d6f756e74206d7573742067726561746572207468616e207a65726f210000600082015250565b7f4e6f742061206c6f74746572792061646d696e00000000000000000000000000600082015250565b7f5061757361626c653a2070617573656400000000000000000000000000000000600082015250565b7f416363657373436f6e74726f6c3a206163636f756e7420000000000000000000600082015250565b7f206973206d697373696e6720726f6c6520000000000000000000000000000000600082015250565b7f4e6f742061646d696e0000000000000000000000000000000000000000000000600082015250565b7f416363657373436f6e74726f6c3a2063616e206f6e6c792072656e6f756e636560008201527f20726f6c657320666f722073656c660000000000000000000000000000000000602082015250565b611b3f81611884565b8114611b4a57600080fd5b50565b611b5681611896565b8114611b6157600080fd5b50565b611b6d816118a2565b8114611b7857600080fd5b50565b611b84816118ac565b8114611b8f57600080fd5b50565b611b9b816118f8565b8114611ba657600080fd5b5056fea26469706673582212208b37c90587a7bca691f6273b97209f6d63cc12e58b60fff53da99da695548d6464736f6c63430008040033",
  "immutableReferences": {},
  "source": "// SPDX-License-Identifier: AGPL-3.0-or-later\npragma solidity ^0.8.0;\n\nimport \"./MondrainERC721.sol\";\nimport \"./MondrainERC20.sol\";\nimport \"@openzeppelin/contracts/security/Pausable.sol\";\nimport \"@openzeppelin/contracts/access/AccessControl.sol\";\n\n\ncontract MondrainLottery is AccessControl, Pausable {\n\n    bytes32 public constant LOTTERY_ADMIN_ROLE = keccak256(\"LOTTERY_ADMIN_ROLE\");\n\n    modifier onlyAdmin {\n        require(hasRole(DEFAULT_ADMIN_ROLE, msg.sender), \"Not admin\");\n        _;\n    }\n\n    modifier onlyLotteryAdmin {\n        require(hasRole(LOTTERY_ADMIN_ROLE, msg.sender), \"Not a lottery admin\");\n        _;      \n    }\n    \n    MondrainERC721 private erc721;\n    MondrainERC20 private erc20;\n    uint rewardAmount = 1000;\n\n    event WinnerRewarded(address winnerAddress, uint tokenAmount, uint256 timestamp);\n\n    constructor (address mondrainERC721Address, address mondrainERC20Address) {\n        erc721 = MondrainERC721(mondrainERC721Address);\n        erc20 = MondrainERC20(mondrainERC20Address);\n        _setupRole(DEFAULT_ADMIN_ROLE, msg.sender);\n        grantRole(LOTTERY_ADMIN_ROLE, msg.sender);\n    }\n    \n    function drawWinner() private returns(address) {\n        uint _tokenId =  erc721.getRandomTokenId();\n        address _owner = erc721.ownerOf(_tokenId);\n        return _owner;\n    }\n\n    function rewardWinner() public onlyLotteryAdmin whenNotPaused {\n        address _winner = drawWinner();\n        erc20.mint(address(this), rewardAmount);\n        erc20.transfer(_winner, rewardAmount);\n        emit WinnerRewarded(_winner, rewardAmount, block.timestamp);\n    }\n\n    function setRewardAmount(uint amount) public onlyAdmin {\n        require(amount > 0, \"Amount must greater than zero!\");\n        rewardAmount = amount;\n    }\n\n    function getRewardAmount() public view returns(uint){\n        return rewardAmount;\n    }\n\n    function grantLotteryAdminRole(address newLotteryAdmin) public onlyAdmin {\n        grantRole(LOTTERY_ADMIN_ROLE, newLotteryAdmin);\n    }\n\n    function revokeLotteryAdminRole(address LotteryAdmin) public onlyAdmin {\n        revokeRole(LOTTERY_ADMIN_ROLE, LotteryAdmin);\n    }\n\n    function pauseLottery() public onlyAdmin {\n        _pause();\n    }\n\n    function unpauseLottery() public onlyAdmin {\n        _unpause();\n    }\n}",
  "sourcePath": "/Users/alessandrobartalucci/nft2/mondrian/contracts/MondrainLottery.sol",
  "compiler": {
    "name": "solc",
    "version": "0.8.4+commit.c7e474f2.Emscripten.clang"
  },
  "schemaVersion": "3.3.4",
  "updatedAt": "2021-05-28T21:42:17.170Z",
  "networkType": "ethereum",
  "devdoc": {
    "kind": "dev",
    "methods": {
      "getRoleAdmin(bytes32)": {
        "details": "Returns the admin role that controls `role`. See {grantRole} and {revokeRole}. To change a role's admin, use {_setRoleAdmin}."
      },
      "grantRole(bytes32,address)": {
        "details": "Grants `role` to `account`. If `account` had not been already granted `role`, emits a {RoleGranted} event. Requirements: - the caller must have ``role``'s admin role."
      },
      "hasRole(bytes32,address)": {
        "details": "Returns `true` if `account` has been granted `role`."
      },
      "paused()": {
        "details": "Returns true if the contract is paused, and false otherwise."
      },
      "renounceRole(bytes32,address)": {
        "details": "Revokes `role` from the calling account. Roles are often managed via {grantRole} and {revokeRole}: this function's purpose is to provide a mechanism for accounts to lose their privileges if they are compromised (such as when a trusted device is misplaced). If the calling account had been granted `role`, emits a {RoleRevoked} event. Requirements: - the caller must be `account`."
      },
      "revokeRole(bytes32,address)": {
        "details": "Revokes `role` from `account`. If `account` had been granted `role`, emits a {RoleRevoked} event. Requirements: - the caller must have ``role``'s admin role."
      },
      "supportsInterface(bytes4)": {
        "details": "See {IERC165-supportsInterface}."
      }
    },
    "version": 1
  },
  "userdoc": {
    "kind": "user",
    "methods": {},
    "version": 1
  }
}